{"abi":[{"type":"constructor","inputs":[{"name":"_base","type":"address","internalType":"address"},{"name":"_quote","type":"address","internalType":"address"},{"name":"_asdCrvCrvPool","type":"address","internalType":"address"},{"name":"_asdCrvCrvOracleIndex","type":"uint256","internalType":"uint256"},{"name":"_crvCrvUsdPool","type":"address","internalType":"address"},{"name":"_crvCrvUsdOracleIndex","type":"uint256","internalType":"uint256"},{"name":"_crvUsdUsdFeed","type":"address","internalType":"address"},{"name":"_maxStaleness","type":"uint256","internalType":"uint256"}],"stateMutability":"nonpayable"},{"type":"function","name":"asdCrvCrvOracleIndex","inputs":[],"outputs":[{"name":"","type":"uint256","internalType":"uint256"}],"stateMutability":"view"},{"type":"function","name":"asdCrvCrvPool","inputs":[],"outputs":[{"name":"","type":"address","internalType":"address"}],"stateMutability":"view"},{"type":"function","name":"base","inputs":[],"outputs":[{"name":"","type":"address","internalType":"address"}],"stateMutability":"view"},{"type":"function","name":"crvCrvUsdOracleIndex","inputs":[],"outputs":[{"name":"","type":"uint256","internalType":"uint256"}],"stateMutability":"view"},{"type":"function","name":"crvCrvUsdPool","inputs":[],"outputs":[{"name":"","type":"address","internalType":"address"}],"stateMutability":"view"},{"type":"function","name":"crvUsdUsdFeed","inputs":[],"outputs":[{"name":"","type":"address","internalType":"address"}],"stateMutability":"view"},{"type":"function","name":"feedDecimals","inputs":[],"outputs":[{"name":"","type":"uint8","internalType":"uint8"}],"stateMutability":"view"},{"type":"function","name":"getQuote","inputs":[{"name":"inAmount","type":"uint256","internalType":"uint256"},{"name":"base","type":"address","internalType":"address"},{"name":"quote","type":"address","internalType":"address"}],"outputs":[{"name":"","type":"uint256","internalType":"uint256"}],"stateMutability":"view"},{"type":"function","name":"getQuotes","inputs":[{"name":"inAmount","type":"uint256","internalType":"uint256"},{"name":"base","type":"address","internalType":"address"},{"name":"quote","type":"address","internalType":"address"}],"outputs":[{"name":"","type":"uint256","internalType":"uint256"},{"name":"","type":"uint256","internalType":"uint256"}],"stateMutability":"view"},{"type":"function","name":"maxStaleness","inputs":[],"outputs":[{"name":"","type":"uint256","internalType":"uint256"}],"stateMutability":"view"},{"type":"function","name":"name","inputs":[],"outputs":[{"name":"","type":"string","internalType":"string"}],"stateMutability":"view"},{"type":"function","name":"quote","inputs":[],"outputs":[{"name":"","type":"address","internalType":"address"}],"stateMutability":"view"},{"type":"function","name":"unitPrice","inputs":[],"outputs":[{"name":"","type":"uint256","internalType":"uint256"}],"stateMutability":"view"},{"type":"error","name":"PriceOracle_InvalidAnswer","inputs":[]},{"type":"error","name":"PriceOracle_InvalidConfiguration","inputs":[]},{"type":"error","name":"PriceOracle_NotSupported","inputs":[{"name":"base","type":"address","internalType":"address"},{"name":"quote","type":"address","internalType":"address"}]},{"type":"error","name":"PriceOracle_Overflow","inputs":[]}],"bytecode":{"object":"0x6101c060405234801562000011575f80fd5b5060405162001372380380620013728339810160408190526200003491620002fd565b6001600160a01b03881615806200005257506001600160a01b038716155b806200006557506001600160a01b038616155b806200007857506001600160a01b038416155b806200008b57506001600160a01b038216155b8062000095575080155b15620000b4576040516301a4c16560e21b815260040160405180910390fd5b6001600160a01b0380891660805287811660a05286811660c05260e08690528481166101005261012084905282166101408190526101608290526040805163313ce56760e01b8152905163313ce567916004808201926020929091908290030181865afa15801562000128573d5f803e3d5ffd5b505050506040513d601f19601f820116820180604052508101906200014e919062000385565b60ff16610180526080516200017e90620001689062000191565b60a051620001769062000191565b601262000271565b6101a05250620005159650505050505050565b5f63ffffffff826001600160a01b031611620001af57506012919050565b60408051600481526024810182526020810180516001600160e01b031663313ce56760e01b17905290515f9182916001600160a01b03861691620001f391620003ae565b5f60405180830381855afa9150503d805f81146200022d576040519150601f19603f3d011682016040523d82523d5f602084013e62000232565b606091505b509150915081801562000246575080516020145b6200025357601262000269565b8080602001905181019062000269919062000385565b949350505050565b5f6200026983620002838685620003f0565b5f60268360ff1611806200029a575060268260ff16115b15620002b9576040516302950f9560e51b815260040160405180910390fd5b620002c683600a62000505565b6080620002d584600a62000505565b901b1790505b92915050565b80516001600160a01b0381168114620002f8575f80fd5b919050565b5f805f805f805f80610100898b03121562000316575f80fd5b6200032189620002e1565b97506200033160208a01620002e1565b96506200034160408a01620002e1565b9550606089015194506200035860808a01620002e1565b935060a089015192506200036f60c08a01620002e1565b915060e089015190509295985092959890939650565b5f6020828403121562000396575f80fd5b815160ff81168114620003a7575f80fd5b9392505050565b5f82515f5b81811015620003cf5760208186018101518583015201620003b3565b505f920191825250919050565b634e487b7160e01b5f52601160045260245ffd5b60ff8181168382160190811115620002db57620002db620003dc565b600181815b808511156200044c57815f1904821115620004305762000430620003dc565b808516156200043e57918102915b93841c939080029062000411565b509250929050565b5f826200046457506001620002db565b816200047257505f620002db565b81600181146200048b57600281146200049657620004b6565b6001915050620002db565b60ff841115620004aa57620004aa620003dc565b50506001821b620002db565b5060208310610133831016604e8410600b8410161715620004db575081810a620002db565b620004e783836200040c565b805f1904821115620004fd57620004fd620003dc565b029392505050565b5f620003a760ff84168362000454565b60805160a05160c05160e05161010051610120516101405161016051610180516101a051610d99620005d95f395f6105be01525f81816102b001528181610718015281816107430152818161078b01526107ba01525f818161024f01526106af01525f818161022801526105f201525f81816102f1015261043b01525f8181610110015261047b01525f81816101f3015261036b01525f81816101a501526103aa01525f8181610276015261058a01525f81816101cc01526105680152610d995ff3fe608060405234801561000f575f80fd5b50600436106100da575f3560e01c80637bf29afc11610088578063ae68676c11610063578063ae68676c14610298578063c23953d0146102ab578063e73faa2d146102e4578063eb544b1c146102ec575f80fd5b80637bf29afc1461022357806387cf46961461024a578063999b93af14610271575f80fd5b8063385f0210116100b8578063385f0210146101a05780635001f3b5146101c757806354654005146101ee575f80fd5b80630579e61f146100de57806305c333fc1461010b57806306fdde0314610157575b5f80fd5b6100f16100ec366004610a6a565b610313565b604080519283526020830191909152015b60405180910390f35b6101327f000000000000000000000000000000000000000000000000000000000000000081565b60405173ffffffffffffffffffffffffffffffffffffffff9091168152602001610102565b6101936040518060400160405280601681526020017f617364435256746f55534445756c65724f7261636c650000000000000000000081525081565b6040516101029190610aa3565b6101327f000000000000000000000000000000000000000000000000000000000000000081565b6101327f000000000000000000000000000000000000000000000000000000000000000081565b6102157f000000000000000000000000000000000000000000000000000000000000000081565b604051908152602001610102565b6101327f000000000000000000000000000000000000000000000000000000000000000081565b6102157f000000000000000000000000000000000000000000000000000000000000000081565b6101327f000000000000000000000000000000000000000000000000000000000000000081565b6102156102a6366004610a6a565b61032d565b6102d27f000000000000000000000000000000000000000000000000000000000000000081565b60405160ff9091168152602001610102565b610215610343565b6102157f000000000000000000000000000000000000000000000000000000000000000081565b5f805f610321868686610560565b96879650945050505050565b5f610339848484610560565b90505b9392505050565b6040517f687276530000000000000000000000000000000000000000000000000000000081527f000000000000000000000000000000000000000000000000000000000000000060048201525f90819073ffffffffffffffffffffffffffffffffffffffff7f00000000000000000000000000000000000000000000000000000000000000001690636872765390602401602060405180830381865afa1580156103ef573d5f803e3d5ffd5b505050506040513d601f19601f820116820180604052508101906104139190610b0d565b6040517f687276530000000000000000000000000000000000000000000000000000000081527f000000000000000000000000000000000000000000000000000000000000000060048201529091505f9073ffffffffffffffffffffffffffffffffffffffff7f00000000000000000000000000000000000000000000000000000000000000001690636872765390602401602060405180830381865afa1580156104c0573d5f803e3d5ffd5b505050506040513d601f19601f820116820180604052508101906104e49190610b0d565b90505f6104ef6105ec565b90508215806104fc575081155b15610533576040517fd743df6a00000000000000000000000000000000000000000000000000000000815260040160405180910390fd5b6105586105498484670de0b6b3a76400006107fb565b82670de0b6b3a76400006107fb565b935050505090565b5f806105ae847f0000000000000000000000000000000000000000000000000000000000000000857f00000000000000000000000000000000000000000000000000000000000000006108b6565b90506105e3856105bc610343565b7f0000000000000000000000000000000000000000000000000000000000000000846109f2565b95945050505050565b5f805f807f000000000000000000000000000000000000000000000000000000000000000073ffffffffffffffffffffffffffffffffffffffff1663feaf968c6040518163ffffffff1660e01b815260040160a060405180830381865afa158015610659573d5f803e3d5ffd5b505050506040513d601f19601f8201168201806040525081019061067d9190610b3d565b94509450509350505f83131580610692575081155b806106a7575069ffffffffffffffffffff8116155b806106da57507f00000000000000000000000000000000000000000000000000000000000000006106d88342610bb6565b115b15610711576040517fd743df6a00000000000000000000000000000000000000000000000000000000815260040160405180910390fd5b82601260ff7f0000000000000000000000000000000000000000000000000000000000000000161015610787576107697f00000000000000000000000000000000000000000000000000000000000000006012610bcf565b61077490600a610d06565b61077e9082610d14565b94505050505090565b60127f000000000000000000000000000000000000000000000000000000000000000060ff1611156107f3576107de60127f0000000000000000000000000000000000000000000000000000000000000000610bcf565b6107e990600a610d06565b61077e9082610d2b565b949350505050565b8282027fffffffffffffffffffffffffffffffffffffffffffffffffffffffffffffffff838509818110820190038061084957826108405763ae47f7025f526004601cfd5b5081900461033c565b80831161085d5763ae47f7025f526004601cfd5b828486095f84810385169485900494848311909303908390038390046001010292030417600260038302811880840282030280840282030280840282030280840282030280840282030280840290910302029392505050565b5f8373ffffffffffffffffffffffffffffffffffffffff168573ffffffffffffffffffffffffffffffffffffffff1614801561091d57508173ffffffffffffffffffffffffffffffffffffffff168373ffffffffffffffffffffffffffffffffffffffff16145b1561092957505f6107f3565b8173ffffffffffffffffffffffffffffffffffffffff168573ffffffffffffffffffffffffffffffffffffffff1614801561098f57508373ffffffffffffffffffffffffffffffffffffffff168373ffffffffffffffffffffffffffffffffffffffff16145b1561099c575060016107f3565b6040517f4ca22af000000000000000000000000000000000000000000000000000000000815273ffffffffffffffffffffffffffffffffffffffff80871660048301528416602482015260440160405180910390fd5b5f6fffffffffffffffffffffffffffffffff8316608084901c8315610a2e57610a258782610a208986610d14565b6107fb565b925050506107f3565b610a2587610a3c8885610d14565b836107fb565b803573ffffffffffffffffffffffffffffffffffffffff81168114610a65575f80fd5b919050565b5f805f60608486031215610a7c575f80fd5b83359250610a8c60208501610a42565b9150610a9a60408501610a42565b90509250925092565b5f602080835283518060208501525f5b81811015610acf57858101830151858201604001528201610ab3565b505f6040828601015260407fffffffffffffffffffffffffffffffffffffffffffffffffffffffffffffffe0601f8301168501019250505092915050565b5f60208284031215610b1d575f80fd5b5051919050565b805169ffffffffffffffffffff81168114610a65575f80fd5b5f805f805f60a08688031215610b51575f80fd5b610b5a86610b24565b9450602086015193506040860151925060608601519150610b7d60808701610b24565b90509295509295909350565b7f4e487b71000000000000000000000000000000000000000000000000000000005f52601160045260245ffd5b81810381811115610bc957610bc9610b89565b92915050565b60ff8281168282160390811115610bc957610bc9610b89565b600181815b80851115610c4157817fffffffffffffffffffffffffffffffffffffffffffffffffffffffffffffffff04821115610c2757610c27610b89565b80851615610c3457918102915b93841c9390800290610bed565b509250929050565b5f82610c5757506001610bc9565b81610c6357505f610bc9565b8160018114610c795760028114610c8357610c9f565b6001915050610bc9565b60ff841115610c9457610c94610b89565b50506001821b610bc9565b5060208310610133831016604e8410600b8410161715610cc2575081810a610bc9565b610ccc8383610be8565b807fffffffffffffffffffffffffffffffffffffffffffffffffffffffffffffffff04821115610cfe57610cfe610b89565b029392505050565b5f61033c60ff841683610c49565b8082028115828204841417610bc957610bc9610b89565b5f82610d5e577f4e487b71000000000000000000000000000000000000000000000000000000005f52601260045260245ffd5b50049056fea2646970667358221220b7659979be5b48a7a3f31b8bc251bcc7301448c41aae55116d053397077d14ab64736f6c63430008180033","linkReferences":{}},"methodIdentifiers":{"asdCrvCrvOracleIndex()":"54654005","asdCrvCrvPool()":"385f0210","base()":"5001f3b5","crvCrvUsdOracleIndex()":"eb544b1c","crvCrvUsdPool()":"05c333fc","crvUsdUsdFeed()":"7bf29afc","feedDecimals()":"c23953d0","getQuote(uint256,address,address)":"ae68676c","getQuotes(uint256,address,address)":"0579e61f","maxStaleness()":"87cf4696","name()":"06fdde03","quote()":"999b93af","unitPrice()":"e73faa2d"},"id":24}