{"abi":[{"type":"constructor","inputs":[{"name":"_base","type":"address","internalType":"address"},{"name":"_quote","type":"address","internalType":"address"},{"name":"_feed","type":"address","internalType":"address"},{"name":"_maxStaleness","type":"uint256","internalType":"uint256"}],"stateMutability":"nonpayable"},{"type":"function","name":"base","inputs":[],"outputs":[{"name":"","type":"address","internalType":"address"}],"stateMutability":"view"},{"type":"function","name":"feed","inputs":[],"outputs":[{"name":"","type":"address","internalType":"address"}],"stateMutability":"view"},{"type":"function","name":"feedDecimals","inputs":[],"outputs":[{"name":"","type":"uint8","internalType":"uint8"}],"stateMutability":"view"},{"type":"function","name":"getQuote","inputs":[{"name":"inAmount","type":"uint256","internalType":"uint256"},{"name":"base","type":"address","internalType":"address"},{"name":"quote","type":"address","internalType":"address"}],"outputs":[{"name":"","type":"uint256","internalType":"uint256"}],"stateMutability":"view"},{"type":"function","name":"getQuotes","inputs":[{"name":"inAmount","type":"uint256","internalType":"uint256"},{"name":"base","type":"address","internalType":"address"},{"name":"quote","type":"address","internalType":"address"}],"outputs":[{"name":"","type":"uint256","internalType":"uint256"},{"name":"","type":"uint256","internalType":"uint256"}],"stateMutability":"view"},{"type":"function","name":"maxStaleness","inputs":[],"outputs":[{"name":"","type":"uint256","internalType":"uint256"}],"stateMutability":"view"},{"type":"function","name":"name","inputs":[],"outputs":[{"name":"","type":"string","internalType":"string"}],"stateMutability":"view"},{"type":"function","name":"quote","inputs":[],"outputs":[{"name":"","type":"address","internalType":"address"}],"stateMutability":"view"},{"type":"function","name":"unitPrice","inputs":[],"outputs":[{"name":"","type":"uint256","internalType":"uint256"}],"stateMutability":"view"},{"type":"error","name":"PriceOracle_InvalidAnswer","inputs":[]},{"type":"error","name":"PriceOracle_InvalidConfiguration","inputs":[]},{"type":"error","name":"PriceOracle_NotSupported","inputs":[{"name":"base","type":"address","internalType":"address"},{"name":"quote","type":"address","internalType":"address"}]},{"type":"error","name":"PriceOracle_Overflow","inputs":[]}],"bytecode":{"object":"0x61014060405234801562000011575f80fd5b5060405162000fa238038062000fa28339810160408190526200003491620002b9565b6001600160a01b03841615806200005257506001600160a01b038316155b806200006557506001600160a01b038216155b806200006f575080155b156200008e576040516301a4c16560e21b815260040160405180910390fd5b6001600160a01b0380851660805283811660a052821660c081905260e08290526040805163313ce56760e01b8152905163313ce567916004808201926020929091908290030181865afa158015620000e8573d5f803e3d5ffd5b505050506040513d601f19601f820116820180604052508101906200010e919062000308565b60ff16610100526080516200013e9062000128906200014d565b60a05162000136906200014d565b60126200022d565b61012052506200049892505050565b5f63ffffffff826001600160a01b0316116200016b57506012919050565b60408051600481526024810182526020810180516001600160e01b031663313ce56760e01b17905290515f9182916001600160a01b03861691620001af9162000331565b5f60405180830381855afa9150503d805f8114620001e9576040519150601f19603f3d011682016040523d82523d5f602084013e620001ee565b606091505b509150915081801562000202575080516020145b6200020f57601262000225565b8080602001905181019062000225919062000308565b949350505050565b5f62000225836200023f868562000373565b5f60268360ff16118062000256575060268260ff16115b1562000275576040516302950f9560e51b815260040160405180910390fd5b6200028283600a62000488565b60806200029184600a62000488565b901b1790505b92915050565b80516001600160a01b0381168114620002b4575f80fd5b919050565b5f805f8060808587031215620002cd575f80fd5b620002d8856200029d565b9350620002e8602086016200029d565b9250620002f8604086016200029d565b6060959095015193969295505050565b5f6020828403121562000319575f80fd5b815160ff811681146200032a575f80fd5b9392505050565b5f82515f5b8181101562000352576020818601810151858301520162000336565b505f920191825250919050565b634e487b7160e01b5f52601160045260245ffd5b60ff81811683821601908111156200029757620002976200035f565b600181815b80851115620003cf57815f1904821115620003b357620003b36200035f565b80851615620003c157918102915b93841c939080029062000394565b509250929050565b5f82620003e75750600162000297565b81620003f557505f62000297565b81600181146200040e5760028114620004195762000439565b600191505062000297565b60ff8411156200042d576200042d6200035f565b50506001821b62000297565b5060208310610133831016604e8410600b84101617156200045e575081810a62000297565b6200046a83836200038f565b805f19048211156200048057620004806200035f565b029392505050565b5f6200032a60ff841683620003d7565b60805160a05160c05160e0516101005161012051610a8a620005185f395f6104d901525f818161020001528181610398015281816103c30152818161040b015261043a01525f8181610191015261032f01525f818161011e015261027201525f81816101c601526104a501525f818161016a01526104830152610a8a5ff3fe608060405234801561000f575f80fd5b506004361061009f575f3560e01c806387cf469611610072578063ae68676c11610058578063ae68676c146101e8578063c23953d0146101fb578063e73faa2d14610234575f80fd5b806387cf46961461018c578063999b93af146101c1575f80fd5b80630579e61f146100a357806306fdde03146100d057806337a7b7d8146101195780635001f3b514610165575b5f80fd5b6100b66100b1366004610772565b61023c565b604080519283526020830191909152015b60405180910390f35b61010c6040518060400160405280601681526020017f637276555344746f55534445756c65724f7261636c650000000000000000000081525081565b6040516100c791906107ab565b6101407f000000000000000000000000000000000000000000000000000000000000000081565b60405173ffffffffffffffffffffffffffffffffffffffff90911681526020016100c7565b6101407f000000000000000000000000000000000000000000000000000000000000000081565b6101b37f000000000000000000000000000000000000000000000000000000000000000081565b6040519081526020016100c7565b6101407f000000000000000000000000000000000000000000000000000000000000000081565b6101b36101f6366004610772565b610256565b6102227f000000000000000000000000000000000000000000000000000000000000000081565b60405160ff90911681526020016100c7565b6101b361026c565b5f805f61024a86868661047b565b96879650945050505050565b5f61026284848461047b565b90505b9392505050565b5f805f807f000000000000000000000000000000000000000000000000000000000000000073ffffffffffffffffffffffffffffffffffffffff1663feaf968c6040518163ffffffff1660e01b815260040160a060405180830381865afa1580156102d9573d5f803e3d5ffd5b505050506040513d601f19601f820116820180604052508101906102fd919061082e565b94509450509350505f83131580610312575081155b80610327575069ffffffffffffffffffff8116155b8061035a57507f000000000000000000000000000000000000000000000000000000000000000061035883426108a7565b115b15610391576040517fd743df6a00000000000000000000000000000000000000000000000000000000815260040160405180910390fd5b82601260ff7f0000000000000000000000000000000000000000000000000000000000000000161015610407576103e97f000000000000000000000000000000000000000000000000000000000000000060126108c0565b6103f490600a6109f7565b6103fe9082610a05565b94505050505090565b60127f000000000000000000000000000000000000000000000000000000000000000060ff1611156104735761045e60127f00000000000000000000000000000000000000000000000000000000000000006108c0565b61046990600a6109f7565b6103fe9082610a1c565b949350505050565b5f806104c9847f0000000000000000000000000000000000000000000000000000000000000000857f0000000000000000000000000000000000000000000000000000000000000000610507565b90506104fe856104d761026c565b7f000000000000000000000000000000000000000000000000000000000000000084610643565b95945050505050565b5f8373ffffffffffffffffffffffffffffffffffffffff168573ffffffffffffffffffffffffffffffffffffffff1614801561056e57508173ffffffffffffffffffffffffffffffffffffffff168373ffffffffffffffffffffffffffffffffffffffff16145b1561057a57505f610473565b8173ffffffffffffffffffffffffffffffffffffffff168573ffffffffffffffffffffffffffffffffffffffff161480156105e057508373ffffffffffffffffffffffffffffffffffffffff168373ffffffffffffffffffffffffffffffffffffffff16145b156105ed57506001610473565b6040517f4ca22af000000000000000000000000000000000000000000000000000000000815273ffffffffffffffffffffffffffffffffffffffff80871660048301528416602482015260440160405180910390fd5b5f6fffffffffffffffffffffffffffffffff8316608084901c831561067f5761067687826106718986610a05565b61068f565b92505050610473565b6106768761068d8885610a05565b835b8282027fffffffffffffffffffffffffffffffffffffffffffffffffffffffffffffffff83850981811082019003806106dd57826106d45763ae47f7025f526004601cfd5b50819004610265565b8083116106f15763ae47f7025f526004601cfd5b828486095f84810385169485900494848311909303908390038390046001010292030417600260038302811880840282030280840282030280840282030280840282030280840282030280840290910302029392505050565b803573ffffffffffffffffffffffffffffffffffffffff8116811461076d575f80fd5b919050565b5f805f60608486031215610784575f80fd5b833592506107946020850161074a565b91506107a26040850161074a565b90509250925092565b5f602080835283518060208501525f5b818110156107d7578581018301518582016040015282016107bb565b505f6040828601015260407fffffffffffffffffffffffffffffffffffffffffffffffffffffffffffffffe0601f8301168501019250505092915050565b805169ffffffffffffffffffff8116811461076d575f80fd5b5f805f805f60a08688031215610842575f80fd5b61084b86610815565b945060208601519350604086015192506060860151915061086e60808701610815565b90509295509295909350565b7f4e487b71000000000000000000000000000000000000000000000000000000005f52601160045260245ffd5b818103818111156108ba576108ba61087a565b92915050565b60ff82811682821603908111156108ba576108ba61087a565b600181815b8085111561093257817fffffffffffffffffffffffffffffffffffffffffffffffffffffffffffffffff048211156109185761091861087a565b8085161561092557918102915b93841c93908002906108de565b509250929050565b5f82610948575060016108ba565b8161095457505f6108ba565b816001811461096a576002811461097457610990565b60019150506108ba565b60ff8411156109855761098561087a565b50506001821b6108ba565b5060208310610133831016604e8410600b84101617156109b3575081810a6108ba565b6109bd83836108d9565b807fffffffffffffffffffffffffffffffffffffffffffffffffffffffffffffffff048211156109ef576109ef61087a565b029392505050565b5f61026560ff84168361093a565b80820281158282048414176108ba576108ba61087a565b5f82610a4f577f4e487b71000000000000000000000000000000000000000000000000000000005f52601260045260245ffd5b50049056fea2646970667358221220224dfacba201d56792717aa978566aef23e74c28a60d19ed338d2e647dde4c0664736f6c63430008180033","linkReferences":{}},"methodIdentifiers":{"base()":"5001f3b5","feed()":"37a7b7d8","feedDecimals()":"c23953d0","getQuote(uint256,address,address)":"ae68676c","getQuotes(uint256,address,address)":"0579e61f","maxStaleness()":"87cf4696","name()":"06fdde03","quote()":"999b93af","unitPrice()":"e73faa2d"},"id":27}