{"abi":[{"type":"constructor","inputs":[{"name":"_base","type":"address","internalType":"address"},{"name":"_quote","type":"address","internalType":"address"},{"name":"_xEthWethPool","type":"address","internalType":"address"},{"name":"_ethUsdFeed","type":"address","internalType":"address"},{"name":"_maxStaleness","type":"uint256","internalType":"uint256"}],"stateMutability":"nonpayable"},{"type":"function","name":"base","inputs":[],"outputs":[{"name":"","type":"address","internalType":"address"}],"stateMutability":"view"},{"type":"function","name":"ethUsdFeed","inputs":[],"outputs":[{"name":"","type":"address","internalType":"address"}],"stateMutability":"view"},{"type":"function","name":"feedDecimals","inputs":[],"outputs":[{"name":"","type":"uint8","internalType":"uint8"}],"stateMutability":"view"},{"type":"function","name":"getQuote","inputs":[{"name":"inAmount","type":"uint256","internalType":"uint256"},{"name":"base","type":"address","internalType":"address"},{"name":"quote","type":"address","internalType":"address"}],"outputs":[{"name":"","type":"uint256","internalType":"uint256"}],"stateMutability":"view"},{"type":"function","name":"getQuotes","inputs":[{"name":"inAmount","type":"uint256","internalType":"uint256"},{"name":"base","type":"address","internalType":"address"},{"name":"quote","type":"address","internalType":"address"}],"outputs":[{"name":"","type":"uint256","internalType":"uint256"},{"name":"","type":"uint256","internalType":"uint256"}],"stateMutability":"view"},{"type":"function","name":"maxStaleness","inputs":[],"outputs":[{"name":"","type":"uint256","internalType":"uint256"}],"stateMutability":"view"},{"type":"function","name":"name","inputs":[],"outputs":[{"name":"","type":"string","internalType":"string"}],"stateMutability":"view"},{"type":"function","name":"quote","inputs":[],"outputs":[{"name":"","type":"address","internalType":"address"}],"stateMutability":"view"},{"type":"function","name":"unitPrice","inputs":[],"outputs":[{"name":"","type":"uint256","internalType":"uint256"}],"stateMutability":"view"},{"type":"function","name":"xEthWethPool","inputs":[],"outputs":[{"name":"","type":"address","internalType":"address"}],"stateMutability":"view"},{"type":"error","name":"PriceOracle_InvalidAnswer","inputs":[]},{"type":"error","name":"PriceOracle_InvalidConfiguration","inputs":[]},{"type":"error","name":"PriceOracle_NotSupported","inputs":[{"name":"base","type":"address","internalType":"address"},{"name":"quote","type":"address","internalType":"address"}]},{"type":"error","name":"PriceOracle_Overflow","inputs":[]}],"bytecode":{"object":"0x61016060405234801562000011575f80fd5b5060405162001164380380620011648339810160408190526200003491620002d4565b6001600160a01b03851615806200005257506001600160a01b038416155b806200006557506001600160a01b038316155b806200007857506001600160a01b038216155b8062000082575080155b15620000a1576040516301a4c16560e21b815260040160405180910390fd5b6001600160a01b0380861660805284811660a05283811660c052821660e08190526101008290526040805163313ce56760e01b8152905163313ce567916004808201926020929091908290030181865afa15801562000102573d5f803e3d5ffd5b505050506040513d601f19601f8201168201806040525081019062000128919062000337565b60ff16610120526080516200015890620001429062000168565b60a051620001509062000168565b601262000248565b6101405250620004c79350505050565b5f63ffffffff826001600160a01b0316116200018657506012919050565b60408051600481526024810182526020810180516001600160e01b031663313ce56760e01b17905290515f9182916001600160a01b03861691620001ca9162000360565b5f60405180830381855afa9150503d805f811462000204576040519150601f19603f3d011682016040523d82523d5f602084013e62000209565b606091505b50915091508180156200021d575080516020145b6200022a57601262000240565b8080602001905181019062000240919062000337565b949350505050565b5f62000240836200025a8685620003a2565b5f60268360ff16118062000271575060268260ff16115b1562000290576040516302950f9560e51b815260040160405180910390fd5b6200029d83600a620004b7565b6080620002ac84600a620004b7565b901b1790505b92915050565b80516001600160a01b0381168114620002cf575f80fd5b919050565b5f805f805f60a08688031215620002e9575f80fd5b620002f486620002b8565b94506200030460208701620002b8565b93506200031460408701620002b8565b92506200032460608701620002b8565b9150608086015190509295509295909350565b5f6020828403121562000348575f80fd5b815160ff8116811462000359575f80fd5b9392505050565b5f82515f5b8181101562000381576020818601810151858301520162000365565b505f920191825250919050565b634e487b7160e01b5f52601160045260245ffd5b60ff8181168382160190811115620002b257620002b26200038e565b600181815b80851115620003fe57815f1904821115620003e257620003e26200038e565b80851615620003f057918102915b93841c9390800290620003c3565b509250929050565b5f826200041657506001620002b2565b816200042457505f620002b2565b81600181146200043d5760028114620004485762000468565b6001915050620002b2565b60ff8411156200045c576200045c6200038e565b50506001821b620002b2565b5060208310610133831016604e8410600b84101617156200048d575081810a620002b2565b620004998383620003be565b805f1904821115620004af57620004af6200038e565b029392505050565b5f6200035960ff84168362000406565b60805160a05160c05160e051610100516101205161014051610c0c620005585f395f61043101525f818161021a0152818161058b015281816105b6015281816105fe015261062d01525f81816101ab015261052201525f8181610184015261046501525f8181610253015261030a01525f81816101e001526103fd01525f818161013801526103db0152610c0c5ff3fe608060405234801561000f575f80fd5b50600436106100b9575f3560e01c8063999b93af11610072578063c23953d011610058578063c23953d014610215578063c551035d1461024e578063e73faa2d14610275575f80fd5b8063999b93af146101db578063ae68676c14610202575f80fd5b80635001f3b5116100a25780635001f3b5146101335780638009b7bd1461017f57806387cf4696146101a6575f80fd5b80630579e61f146100bd57806306fdde03146100ea575b5f80fd5b6100d06100cb3660046108dd565b61027d565b604080519283526020830191909152015b60405180910390f35b6101266040518060400160405280601481526020017f78455448746f55534445756c65724f7261636c6500000000000000000000000081525081565b6040516100e19190610916565b61015a7f000000000000000000000000000000000000000000000000000000000000000081565b60405173ffffffffffffffffffffffffffffffffffffffff90911681526020016100e1565b61015a7f000000000000000000000000000000000000000000000000000000000000000081565b6101cd7f000000000000000000000000000000000000000000000000000000000000000081565b6040519081526020016100e1565b61015a7f000000000000000000000000000000000000000000000000000000000000000081565b6101cd6102103660046108dd565b610297565b61023c7f000000000000000000000000000000000000000000000000000000000000000081565b60405160ff90911681526020016100e1565b61015a7f000000000000000000000000000000000000000000000000000000000000000081565b6101cd6102ad565b5f805f61028b8686866103d3565b96879650945050505050565b5f6102a38484846103d3565b90505b9392505050565b6040517f556d6e9f0000000000000000000000000000000000000000000000000000000081526001600482015260026024820152670de0b6b3a764000060448201525f90819073ffffffffffffffffffffffffffffffffffffffff7f0000000000000000000000000000000000000000000000000000000000000000169063556d6e9f90606401602060405180830381865afa15801561034f573d5f803e3d5ffd5b505050506040513d601f19601f820116820180604052508101906103739190610980565b90505f61037e61045f565b9050815f036103b9576040517fd743df6a00000000000000000000000000000000000000000000000000000000815260040160405180910390fd5b6103cc8282670de0b6b3a764000061066e565b9250505090565b5f80610421847f0000000000000000000000000000000000000000000000000000000000000000857f0000000000000000000000000000000000000000000000000000000000000000610729565b90506104568561042f6102ad565b7f000000000000000000000000000000000000000000000000000000000000000084610865565b95945050505050565b5f805f807f000000000000000000000000000000000000000000000000000000000000000073ffffffffffffffffffffffffffffffffffffffff1663feaf968c6040518163ffffffff1660e01b815260040160a060405180830381865afa1580156104cc573d5f803e3d5ffd5b505050506040513d601f19601f820116820180604052508101906104f091906109b0565b94509450509350505f83131580610505575081155b8061051a575069ffffffffffffffffffff8116155b8061054d57507f000000000000000000000000000000000000000000000000000000000000000061054b8342610a29565b115b15610584576040517fd743df6a00000000000000000000000000000000000000000000000000000000815260040160405180910390fd5b82601260ff7f00000000000000000000000000000000000000000000000000000000000000001610156105fa576105dc7f00000000000000000000000000000000000000000000000000000000000000006012610a42565b6105e790600a610b79565b6105f19082610b87565b94505050505090565b60127f000000000000000000000000000000000000000000000000000000000000000060ff1611156106665761065160127f0000000000000000000000000000000000000000000000000000000000000000610a42565b61065c90600a610b79565b6105f19082610b9e565b949350505050565b8282027fffffffffffffffffffffffffffffffffffffffffffffffffffffffffffffffff83850981811082019003806106bc57826106b35763ae47f7025f526004601cfd5b508190046102a6565b8083116106d05763ae47f7025f526004601cfd5b828486095f84810385169485900494848311909303908390038390046001010292030417600260038302811880840282030280840282030280840282030280840282030280840282030280840290910302029392505050565b5f8373ffffffffffffffffffffffffffffffffffffffff168573ffffffffffffffffffffffffffffffffffffffff1614801561079057508173ffffffffffffffffffffffffffffffffffffffff168373ffffffffffffffffffffffffffffffffffffffff16145b1561079c57505f610666565b8173ffffffffffffffffffffffffffffffffffffffff168573ffffffffffffffffffffffffffffffffffffffff1614801561080257508373ffffffffffffffffffffffffffffffffffffffff168373ffffffffffffffffffffffffffffffffffffffff16145b1561080f57506001610666565b6040517f4ca22af000000000000000000000000000000000000000000000000000000000815273ffffffffffffffffffffffffffffffffffffffff80871660048301528416602482015260440160405180910390fd5b5f6fffffffffffffffffffffffffffffffff8316608084901c83156108a15761089887826108938986610b87565b61066e565b92505050610666565b610898876108af8885610b87565b8361066e565b803573ffffffffffffffffffffffffffffffffffffffff811681146108d8575f80fd5b919050565b5f805f606084860312156108ef575f80fd5b833592506108ff602085016108b5565b915061090d604085016108b5565b90509250925092565b5f602080835283518060208501525f5b8181101561094257858101830151858201604001528201610926565b505f6040828601015260407fffffffffffffffffffffffffffffffffffffffffffffffffffffffffffffffe0601f8301168501019250505092915050565b5f60208284031215610990575f80fd5b5051919050565b805169ffffffffffffffffffff811681146108d8575f80fd5b5f805f805f60a086880312156109c4575f80fd5b6109cd86610997565b94506020860151935060408601519250606086015191506109f060808701610997565b90509295509295909350565b7f4e487b71000000000000000000000000000000000000000000000000000000005f52601160045260245ffd5b81810381811115610a3c57610a3c6109fc565b92915050565b60ff8281168282160390811115610a3c57610a3c6109fc565b600181815b80851115610ab457817fffffffffffffffffffffffffffffffffffffffffffffffffffffffffffffffff04821115610a9a57610a9a6109fc565b80851615610aa757918102915b93841c9390800290610a60565b509250929050565b5f82610aca57506001610a3c565b81610ad657505f610a3c565b8160018114610aec5760028114610af657610b12565b6001915050610a3c565b60ff841115610b0757610b076109fc565b50506001821b610a3c565b5060208310610133831016604e8410600b8410161715610b35575081810a610a3c565b610b3f8383610a5b565b807fffffffffffffffffffffffffffffffffffffffffffffffffffffffffffffffff04821115610b7157610b716109fc565b029392505050565b5f6102a660ff841683610abc565b8082028115828204841417610a3c57610a3c6109fc565b5f82610bd1577f4e487b71000000000000000000000000000000000000000000000000000000005f52601260045260245ffd5b50049056fea2646970667358221220d40483983c6550544ba6324f1f1b12b96c657fe3d1dc014e0bc5b298a3fc110864736f6c63430008180033","linkReferences":{}},"methodIdentifiers":{"base()":"5001f3b5","ethUsdFeed()":"8009b7bd","feedDecimals()":"c23953d0","getQuote(uint256,address,address)":"ae68676c","getQuotes(uint256,address,address)":"0579e61f","maxStaleness()":"87cf4696","name()":"06fdde03","quote()":"999b93af","unitPrice()":"e73faa2d","xEthWethPool()":"c551035d"},"id":28}