{"abi":[{"type":"constructor","inputs":[{"name":"owner_","type":"address","internalType":"address"},{"name":"adminFeeReceiver_","type":"address","internalType":"address"},{"name":"evc_","type":"address","internalType":"address"},{"name":"adminFeeBps_","type":"uint256","internalType":"uint256"},{"name":"markets_","type":"tuple[2]","internalType":"struct ArbitrumEulerCollateralLiquidator.MarketConfig[2]","components":[{"name":"liabilityVault","type":"address","internalType":"address"},{"name":"collateralVault","type":"address","internalType":"address"},{"name":"loanToken","type":"address","internalType":"address"},{"name":"route","type":"uint8","internalType":"enum ArbitrumEulerCollateralLiquidator.CollateralRoute"}]}],"stateMutability":"nonpayable"},{"type":"function","name":"adminFeeBps","inputs":[],"outputs":[{"name":"","type":"uint256","internalType":"uint256"}],"stateMutability":"view"},{"type":"function","name":"adminFeeReceiver","inputs":[],"outputs":[{"name":"","type":"address","internalType":"address"}],"stateMutability":"view"},{"type":"function","name":"completeLiquidation","inputs":[{"name":"params","type":"tuple","internalType":"struct ArbitrumEulerCollateralLiquidator.ActiveLiquidation","components":[{"name":"caller","type":"address","internalType":"address"},{"name":"callerFeeReceiver","type":"address","internalType":"address"},{"name":"borrower","type":"address","internalType":"address"},{"name":"marketNumber","type":"uint8","internalType":"uint8"},{"name":"repayAssets","type":"uint256","internalType":"uint256"},{"name":"collateralShares","type":"uint256","internalType":"uint256"},{"name":"routeCollateralBalanceBefore","type":"uint256","internalType":"uint256"}]}],"outputs":[],"stateMutability":"nonpayable"},{"type":"function","name":"evc","inputs":[],"outputs":[{"name":"","type":"address","internalType":"address"}],"stateMutability":"view"},{"type":"function","name":"liquidate","inputs":[{"name":"borrower","type":"address","internalType":"address"},{"name":"marketNumber","type":"uint8","internalType":"uint8"}],"outputs":[],"stateMutability":"nonpayable"},{"type":"function","name":"liquidateBot","inputs":[{"name":"borrower","type":"address","internalType":"address"},{"name":"marketNumber","type":"uint8","internalType":"uint8"},{"name":"deadline","type":"uint256","internalType":"uint256"},{"name":"callerFeeReceiver","type":"address","internalType":"address"}],"outputs":[],"stateMutability":"nonpayable"},{"type":"function","name":"marketInfo","inputs":[{"name":"marketNumber","type":"uint8","internalType":"uint8"}],"outputs":[{"name":"","type":"tuple","internalType":"struct ArbitrumEulerCollateralLiquidator.MarketConfig","components":[{"name":"liabilityVault","type":"address","internalType":"address"},{"name":"collateralVault","type":"address","internalType":"address"},{"name":"loanToken","type":"address","internalType":"address"},{"name":"route","type":"uint8","internalType":"enum ArbitrumEulerCollateralLiquidator.CollateralRoute"}]}],"stateMutability":"view"},{"type":"function","name":"owner","inputs":[],"outputs":[{"name":"","type":"address","internalType":"address"}],"stateMutability":"view"},{"type":"function","name":"setAdminFeeBps","inputs":[{"name":"newAdminFeeBps","type":"uint256","internalType":"uint256"}],"outputs":[],"stateMutability":"nonpayable"},{"type":"function","name":"setAdminFeeReceiver","inputs":[{"name":"newAdminFeeReceiver","type":"address","internalType":"address"}],"outputs":[],"stateMutability":"nonpayable"},{"type":"function","name":"transferOwner","inputs":[{"name":"newOwner","type":"address","internalType":"address"}],"outputs":[],"stateMutability":"nonpayable"},{"type":"function","name":"updateMarket","inputs":[{"name":"marketNumber","type":"uint8","internalType":"uint8"},{"name":"liabilityVault","type":"address","internalType":"address"},{"name":"collateralVault","type":"address","internalType":"address"},{"name":"loanToken","type":"address","internalType":"address"}],"outputs":[],"stateMutability":"nonpayable"},{"type":"event","name":"AdminFeeReceiverUpdated","inputs":[{"name":"oldReceiver","type":"address","indexed":true,"internalType":"address"},{"name":"newReceiver","type":"address","indexed":true,"internalType":"address"}],"anonymous":false},{"type":"event","name":"AdminFeeUpdated","inputs":[{"name":"oldFeeBps","type":"uint256","indexed":false,"internalType":"uint256"},{"name":"newFeeBps","type":"uint256","indexed":false,"internalType":"uint256"}],"anonymous":false},{"type":"event","name":"LiquidationExecuted","inputs":[{"name":"caller","type":"address","indexed":true,"internalType":"address"},{"name":"callerFeeReceiver","type":"address","indexed":true,"internalType":"address"},{"name":"borrower","type":"address","indexed":true,"internalType":"address"},{"name":"marketNumber","type":"uint8","indexed":false,"internalType":"uint8"},{"name":"repayAssets","type":"uint256","indexed":false,"internalType":"uint256"},{"name":"collateralShares","type":"uint256","indexed":false,"internalType":"uint256"},{"name":"profit","type":"uint256","indexed":false,"internalType":"uint256"},{"name":"adminFee","type":"uint256","indexed":false,"internalType":"uint256"},{"name":"callerFee","type":"uint256","indexed":false,"internalType":"uint256"}],"anonymous":false},{"type":"event","name":"OwnerTransferred","inputs":[{"name":"oldOwner","type":"address","indexed":true,"internalType":"address"},{"name":"newOwner","type":"address","indexed":true,"internalType":"address"}],"anonymous":false},{"type":"error","name":"ActiveLiquidationAlready","inputs":[]},{"type":"error","name":"ApproveFailed","inputs":[{"name":"token","type":"address","internalType":"address"},{"name":"spender","type":"address","internalType":"address"},{"name":"amount","type":"uint256","internalType":"uint256"}]},{"type":"error","name":"BadFee","inputs":[]},{"type":"error","name":"BadMarketNumber","inputs":[]},{"type":"error","name":"DebtNotRepaid","inputs":[]},{"type":"error","name":"Expired","inputs":[]},{"type":"error","name":"ExternalCallFailed","inputs":[{"name":"target","type":"address","internalType":"address"},{"name":"data","type":"bytes","internalType":"bytes"},{"name":"result","type":"bytes","internalType":"bytes"}]},{"type":"error","name":"InsufficientBalance","inputs":[{"name":"token","type":"address","internalType":"address"},{"name":"available","type":"uint256","internalType":"uint256"},{"name":"required","type":"uint256","internalType":"uint256"}]},{"type":"error","name":"NoActiveLiquidation","inputs":[]},{"type":"error","name":"NoLiquidationAvailable","inputs":[]},{"type":"error","name":"NoProfit","inputs":[]},{"type":"error","name":"NoRouteOutput","inputs":[{"name":"token","type":"address","internalType":"address"}]},{"type":"error","name":"NotEVC","inputs":[]},{"type":"error","name":"NotOwner","inputs":[]},{"type":"error","name":"ZeroAddress","inputs":[]},{"type":"error","name":"ZeroAmount","inputs":[]},{"type":"error","name":"ZeroReceiver","inputs":[]}],"bytecode":{"object":"0x60a03462000333576001600160401b0390601f6200283238819003918201601f1916830192919084841183851017620003375781906040948552833981016101808083830312620003335762000055836200034b565b91602090620000668286016200034b565b92620000748787016200034b565b9560609260608201519260809a82609f8501121562000333578a51938b85018581108382111762000337578c528492810193808511620003335792908d01925b848410620002c4575050506001600160a01b039788169891505087158015620002b9575b8015620002ae575b620002675761271083116200029d575f80546001600160a01b03199081169099178155600180548a16978916979097178755908a5260029283559897969590855b6200017d575b8888516124bf91826200037383395181818161027a01528181610841015281816108d901528181610b7001528181610bd801528181610c4801528181610f98015281816110000152818161107001526111f30152f35b60ff8a1683811015620002965762000196818362000360565b51838a818351161592831562000287575b831562000278575b5050506200026757620001c3908262000360565b51998381101562000253578a88848b6005600380870280910184875116868254161790558b600495858784019289015116908254161790550193015116908783549e015190878210156200024057506001600160a81b0319909d161760a09c909c1b60ff60a01b169b909b17909a5598850160ff16988562000121565b602190634e487b7160e01b5f525260245ffd5b634e487b7160e01b5f52603260045260245ffd5b885163d92e233d60e01b8152600490fd5b015116159050838a5f620001af565b898101518316159350620001a7565b5062000127565b885163917f1a5360e01b8152600490fd5b5086811615620000e0565b5086861615620000d8565b8d8482031262000333578c51808f018481118282101762000337578e52620002ec856200034b565b8152620002fb8a86016200034b565b8a8201528d6200030d8187016200034b565b908201528885015160028110156200033357898201528252928d019290880190620000b4565b5f80fd5b634e487b7160e01b5f52604160045260245ffd5b51906001600160a01b03821682036200033357565b906002811015620002535760051b019056fe6080806040526004361015610012575f80fd5b5f3560e01c90816301b0ba601461129a575080630da26e8d146112225780630fb411e8146111de5780631d22ba0914610dcb578063366b7faa146106815780634fb2e45d1461061557806354cc4a78146105ed5780635b35804e146102545780638da5cb5b1461022d578063c5a066dd14610198578063d9197529146100c15763e6f0681c146100a0575f80fd5b346100bd575f3660031901126100bd576020600254604051908152f35b5f80fd5b346100bd5760203660031901126100bd576100da6113d2565b5f60606040516100e98161141e565b8281528260208201528260408201520152600260ff8216101561018657600281101561017257600361011e910260030161154a565b60606040519160018060a01b038082511684528060208301511660208501526040820151166040840152015190600282101561015e576080916060820152f35b634e487b7160e01b5f52602160045260245ffd5b634e487b7160e01b5f52603260045260245ffd5b604051637677186560e11b8152600490fd5b346100bd5760203660031901126100bd576101b1611408565b5f546001600160a01b0391908216330361021b57811690811561020957816001549182167f86f1ea447c0ade1c00e3fcd68dc32fee6b729e2918af992b853c6f0d0e2456765f80a36001600160a01b03191617600155005b60405163d92e233d60e01b8152600490fd5b6040516330cd747160e01b8152600490fd5b346100bd575f3660031901126100bd575f546040516001600160a01b039091168152602090f35b346100bd5760e03660031901126100bd5760ff60095416156105db576001600160a01b037f0000000000000000000000000000000000000000000000000000000000000000811633036105c9576102a961153a565b60028110156101725760036102c1910260030161154a565b816102cb82611677565b1690604051918291826370a0823160e01b92838252306004830152602095869160249687915afa801561050d575f9061059a575b61030d915060c43590611595565b606082015160028110156105875790610325916116de565b50604081019285845116916103438782511693608435948591611f2c565b5f868883511660446040518094819363acb7081560e01b83528119600484015230898401525af1801561050d57839288928a92610557575b5051166040519283809263d283e75f60e01b82523060048301525afa90811561050d575f9161052a575b5061051857848685511693826040518096819382523060048301525afa92831561050d575f936104de575b5082156104cc576002549081840291848304036104b957506127109004946103f88684611595565b93866104a1575b848281610485575b505050600435938185168095036100bd576104206115b6565b90604435978389168099036100bd577f557371175987d2b90abf3aed1d7ec83d5a100caf34d0bc9e7cbd9f473ce4ab329560c09561045c61153a565b9960ff6040519b168b528a015260a43560408a01526060890152608088015260a08701521693a4005b6104999251166104936115b6565b90612118565b868482610407565b6104b48783835116846001541690612118565b6103ff565b634e487b7160e01b5f9081526011600452fd5b6040516371cd57f760e11b8152600490fd5b9092508481813d8311610506575b6104f6818361150c565b810103126100bd575191866103d0565b503d6104ec565b6040513d5f823e3d90fd5b6040516345a3084b60e11b8152600490fd5b90508581813d8311610550575b610541818361150c565b810103126100bd5751876103a5565b503d610537565b91509250813d8311610580575b61056e818361150c565b810103126100bd57858783928a61037b565b503d610564565b84634e487b7160e01b5f5260216004525ffd5b508481813d83116105c2575b6105b0818361150c565b810103126100bd5761030d90516102ff565b503d6105a6565b604051636aa39b1760e11b8152600490fd5b604051631beb757f60e21b8152600490fd5b346100bd575f3660031901126100bd576001546040516001600160a01b039091168152602090f35b346100bd5760203660031901126100bd5761062e611408565b5f546001600160a01b03808216923384900361021b57169182156102095782907f8934ce4adea8d9ce0d714d2c22b86790e41b7731c84b926fbbdc1d40ff6533c95f80a36001600160a01b031916175f55005b346100bd5760403660031901126100bd5761069a611408565b6106a26113e2565b906001600160a01b038116158015610dc3575b61020957600260ff83161015610186576009549160ff8316610db1576002811015610172576106e96003820260030161154a565b8051602082015160408051634455378960e11b81523060048201526001600160a01b038781166024830152928316604482015293949392909183916064918391165afa90811561050d575f905f92610d77575b5080158015610d6f575b610d5d57602460206001600160a01b0361075f87611677565b16604051928380926370a0823160e01b82523060048301525afa90811561050d575f91610d2b575b5060ff604051946107978661144e565b33865233602087015260018060a01b03881660408701521660608501528160808501528260a085015260c0840152604051946107d28661147e565b600786525f5b60e08110610cfc575084516040516330da145b60e21b60208201523060248201526001600160a01b03909116604482015261082495610b6195909490939092909161083281606481018a565b03601f19810183528261150c565b6040519061083f8261141e565b7f00000000000000000000000000000000000000000000000000000000000000006001600160a01b031682525f6020830181905260408301526060820152610886896115cc565b52610890886115cc565b50602085810151604051636a27f72d60e11b928101929092523060248301526001600160a01b031660448201526108ca8160648101610824565b604051906108d78261141e565b7f00000000000000000000000000000000000000000000000000000000000000006001600160a01b031682525f602083018190526040830152606082015261091e896115d9565b52610928886115d9565b50845160208087015160405163304d095d60e21b928101929092526001600160a01b0393841660248301528316604482015260648101939093525f608480850191909152835216906109798161149b565b604051916109868361141e565b82523060208301525f604083015260608201526109a2876115e9565b526109ac866115e9565b5060018060a01b036020840151169060405190635d043b2960e11b60208301526024820152306044820152306064820152606481526109ea816114b7565b604051916109f78361141e565b82523060208301525f60408301526060820152610a13866115f9565b52610a1d856115f9565b5060408051632d9ac02760e11b60208083019190915283516001600160a01b0390811660248401529084015181166044830152918301519091166064820152606082015160ff166084820152608082015160a482015260a082015160c482015260c09091015160e4808301919091528152610a97816114d3565b60405190610aa48261141e565b3082525f60208301525f60408301526060820152610ac185611609565b52610acb84611609565b50805160405163869e50c760e01b6020820152600481526001600160a01b0390911690610af7816114f0565b60405191610b048361141e565b82523060208301525f60408301526060820152610b2085611619565b52610b2a84611619565b50602090810151604051630749074760e51b928101929092523060248301526001600160a01b031660448201529182906064820190565b60405190610b6e8261141e565b7f00000000000000000000000000000000000000000000000000000000000000006001600160a01b031682525f6020830181905260408301526060820152610bb582611629565b52610bbf81611629565b50600160ff199283168117600955906001600160a01b037f0000000000000000000000000000000000000000000000000000000000000000163b156100bd579060405191829163305ab9e960e21b835260248301906020600485015282518092526044840191602060448260051b8701019401925f905b828210610c985788875f81808a0381837f00000000000000000000000000000000000000000000000000000000000000006001600160a01b03165af1801561050d57610c89575b50600954166009555f80f35b610c929061146a565b81610c7d565b9193955091602080610cea83976043198b8203018652608060608b5160018060a01b03815116845260018060a01b03868201511686850152604081015160408501520151918160608201520190611639565b97019201920186959492939193610c36565b602090604051610d0b8161141e565b5f81525f838201525f604082015260608082015282828a010152016107d8565b90506020813d602011610d55575b81610d466020938361150c565b810103126100bd575187610787565b3d9150610d39565b60405163a4754dad60e01b8152600490fd5b508115610746565b9150506040813d604011610da9575b81610d936040938361150c565b810103126100bd5760208151910151908661073c565b3d9150610d86565b60405163c9bc628160e01b8152600490fd5b5033156106b5565b346100bd5760803660031901126100bd57610de4611408565b610dec6113e2565b90610df56113f2565b9160443542116111cc576001600160a01b0382161580156111bb575b61020957600260ff82161015610186576009549260ff8416610db157600282101561017257610e456003830260030161154a565b8051602082015160408051634455378960e11b81523060048201526001600160a01b038881166024830152928316604482015293959392909183916064918391165afa91821561050d575f915f93611180575b5081158015611178575b610d5d5760249060206001600160a01b03610ebc88611677565b16604051938480926370a0823160e01b82523060048301525afa91821561050d575f92611143575b5060ff9060405195610ef58761144e565b33875260018060a01b0316602087015260018060a01b03881660408701521660608501528160808501528260a085015260c084015260405194610f378661147e565b600786525f5b60e08110611114575084516040516330da145b60e21b60208201523060248201526001600160a01b03909116604482015261082495610f8995909490939092909161083281606481018a565b60405190610f968261141e565b7f00000000000000000000000000000000000000000000000000000000000000006001600160a01b031682525f6020830181905260408301526060820152610fdd82611629565b52610fe781611629565b50600160ff199283168117600955906001600160a01b037f0000000000000000000000000000000000000000000000000000000000000000163b156100bd579060405191829163305ab9e960e21b835260248301906020600485015282518092526044840191602060448260051b8701019401925f905b8282106110b05788875f81808a0381837f00000000000000000000000000000000000000000000000000000000000000006001600160a01b03165af1801561050d57610c895750600954166009555f80f35b919395509160208061110283976043198b8203018652608060608b5160018060a01b03815116845260018060a01b03868201511686850152604081015160408501520151918160608201520190611639565b9701920192018695949293919361105e565b6020906040516111238161141e565b5f81525f838201525f604082015260608082015282828a01015201610f3d565b9091506020813d602011611170575b8161115f6020938361150c565b810103126100bd57519060ff610ee4565b3d9150611152565b508215610ea2565b915091506040813d6040116111b3575b8161119d6040938361150c565b810103126100bd57602081519101519187610e98565b3d9150611190565b506001600160a01b03831615610e11565b604051630407b05b60e31b8152600490fd5b346100bd575f3660031901126100bd576040517f00000000000000000000000000000000000000000000000000000000000000006001600160a01b03168152602090f35b346100bd5760203660031901126100bd575f54600435906001600160a01b0316330361021b576127108111611288577f3a2f07ad45d15f93e217635fa46ff59c188369d5c73302d63302909df63b81ef60406002548151908152836020820152a1600255005b60405163917f1a5360e01b8152600490fd5b346100bd5760803660031901126100bd576112b36113d2565b6001600160a01b0360243581811692908390036100bd57604435928284168094036100bd576112e06113f2565b94835f541633036113c3575060ff821693600285101561018657604051916113078361141e565b82526020820190815283604083019616865261132760608301958661152e565b838251161580156113b8575b80156113ad575b61020957600283101561017257600360059302918483600301915116906bffffffffffffffffffffffff60a01b91828254161790558460048401925116908254161790550192511682549151600281101561015e576001600160a81b03199092161760a09190911b60ff60a01b16179055005b50838651161561133a565b508381511615611333565b6330cd747160e01b8152600490fd5b6004359060ff821682036100bd57565b6024359060ff821682036100bd57565b606435906001600160a01b03821682036100bd57565b600435906001600160a01b03821682036100bd57565b6080810190811067ffffffffffffffff82111761143a57604052565b634e487b7160e01b5f52604160045260245ffd5b60e0810190811067ffffffffffffffff82111761143a57604052565b67ffffffffffffffff811161143a57604052565b610100810190811067ffffffffffffffff82111761143a57604052565b60c0810190811067ffffffffffffffff82111761143a57604052565b60a0810190811067ffffffffffffffff82111761143a57604052565b610120810190811067ffffffffffffffff82111761143a57604052565b6040810190811067ffffffffffffffff82111761143a57604052565b90601f8019910116810190811067ffffffffffffffff82111761143a57604052565b600282101561015e5752565b60643560ff811681036100bd5790565b9061159360405161155a8161141e565b83546001600160a01b03908116825260018501548116602083015260029094015493841660408201529260a01c60ff166060840161152e565b565b919082039182116115a257565b634e487b7160e01b5f52601160045260245ffd5b6024356001600160a01b03811681036100bd5790565b8051156101725760200190565b8051600110156101725760400190565b8051600210156101725760600190565b8051600310156101725760800190565b8051600410156101725760a00190565b8051600510156101725760c00190565b8051600610156101725760e00190565b91908251928382525f5b848110611663575050825f602080949584010152601f8019910116010190565b602081830181015184830182015201611643565b6060018051600281101561015e57156116c55751600281101561015e576001146116ad57604051637677186560e11b8152600490fd5b7355380fe7a1910dff29a47b622057ab4139da42c590565b507375289388d50364c3013583d97bd70ced0e183e3290565b600281101561015e57156118ab5780156118995730156118875760409081516370a0823160e01b81523060048201526020907355380fe7a1910dff29a47b622057ab4139da42c5908281602481855afa90811561187d575f91611850575b5083811061182d57505061174f82611e54565b611757612266565b91835190630b68372160e31b8252600160048301526002602483015260448201526001606482015281816084815f73f7fed8ae0c5b78c19aadd68b700696933b0cefd95af18015611823576117fa575b50506117ba906117b5612266565b611595565b9081156117d057506117cd9030906122e8565b90565b51637af5fdf560e11b81527382af49447d8a07e3bd95bd0d56f35241523fbab16004820152602490fd5b813d831161181c575b61180d818361150c565b810103126100bd575f806117a7565b503d611803565b84513d5f823e3d90fd5b908360649286519263db42144d60e01b8452600484015260248301526044820152fd5b90508281813d8311611876575b611867818361150c565b810103126100bd57515f61173c565b503d61185d565b85513d5f823e3d90fd5b604051630d753d9b60e31b8152600490fd5b604051631f2a200560e01b8152600490fd5b8015611899573015611887576040908151906370a0823160e01b825260049030828401526020906024937375289388d50364c3013583d97bd70ced0e183e3283828781845afa918215611aea575f92611b83575b50828210611b6257505061191281611c09565b61191a6121f6565b90855190630b68372160e31b82526002858301525f8683015260448201526001606482015282816084815f735c959d2c1a49b637fb988c40d663265f8bf6d2895af18015611b5857908391611b2f575b5050611978906117b56121f6565b908115611b065761198882611de8565b611990612266565b908551610100810181811067ffffffffffffffff821117611af45787527311cdb42b0eb46d95f990bedd4695a6e3fa034978815281810187877382af49447d8a07e3bd95bd0d56f35241523fbab196878452828501610bb88152896060870130815262ffffff608089019342855260a08a0195865260c08a01966001885260e08b01985f8a52519a8b9a63414bf38960e01b8c5260018060a01b039b8c9788809451169101525116908b015251166044890152511660648701525160848601525160a48501525160c4840152511660e48201528181610104815f73e592427a0aece92de3edee1f18e0157c058615645af18015611aea57611ac1575b5050611a9a906117b5612266565b938415611ab057505050506117cd9030906122e8565b51637af5fdf560e11b815291820152fd5b813d8311611ae3575b611ad4818361150c565b810103126100bd575f80611a8c565b503d611aca565b87513d5f823e3d90fd5b86604187634e487b7160e01b5f52525ffd5b50507311cdb42b0eb46d95f990bedd4695a6e3fa034978835191637af5fdf560e11b8352820152fd5b813d8311611b51575b611b42818361150c565b810103126100bd57815f61196a565b503d611b38565b86513d5f823e3d90fd5b6064959192935086519463db42144d60e01b86528501528301526044820152fd5b9091508381813d8311611bab575b611b9b818361150c565b810103126100bd5751905f6118ff565b503d611b91565b3d15611bec573d9067ffffffffffffffff821161143a5760405191611be1601f8201601f19166020018461150c565b82523d5f602084013e565b606090565b908160209103126100bd575180151581036100bd5790565b604051906020918281019263095ea7b360e01b90818552735c959d2c1a49b637fb988c40d663265f8bf6d289918260248501525f806044958787820152868152611c528161141e565b517375289388d50364c3013583d97bd70ced0e183e3298828a5af1611c75611bb2565b81611db8575b50611db0575f80604051848101908482528660248201528288820152878152611ca38161141e565b5190828a5af1611cb1611bb2565b9015908115611d7f575b50611d5c575f80916040518481019182528560248201528787820152868152611ce38161141e565b519082895af190611cf2611bb2565b9115918215611d29575b5050611d085750505050565b6064945060405193636a93d39160e01b855260048501526024840152820152fd5b8091925051918215159283611d43575b5050505f80611cfc565b611d539350820181019101611bf1565b155f8080611d39565b6064865f868660405193636a93d39160e01b855260048501526024840152820152fd5b80518015159250849083611d97575b5050505f611cbb565b611da79350820181019101611bf1565b155f8381611d8e565b505050505050565b80518015925084908315611dd0575b5050505f611c7b565b611de09350820181019101611bf1565b5f8381611dc7565b604051906020918281019263095ea7b360e01b9081855273e592427a0aece92de3edee1f18e0157c05861564918260248501525f806044958787820152868152611e318161141e565b517311cdb42b0eb46d95f990bedd4695a6e3fa03497898828a5af1611c75611bb2565b604051906020918281019263095ea7b360e01b9081855273f7fed8ae0c5b78c19aadd68b700696933b0cefd9918260248501525f806044958787820152868152611e9d8161141e565b517355380fe7a1910dff29a47b622057ab4139da42c598828a5af1611c75611bb2565b604051906020918281019263095ea7b360e01b908185527382670f35306253222f8a165869b28c64739ac62e918260248501525f806044958787820152868152611f098161141e565b517382af49447d8a07e3bd95bd0d56f35241523fbab198828a5af1611c75611bb2565b60405163095ea7b360e01b60208083018281526001600160a01b038616602485015260448085018890528452939594601f199490939192915f918291611f7360648261150c565b5190828a5af1611f81611bb2565b816120e8575b50611db05760405193828501938285525f8060018060a01b03968784169889602482015282604482015260448152611fbe8161141e565b5190828c5af1611fcc611bb2565b90159081156120b7575b50612090576040518481019384526001600160a01b0391909116602482015260448101879052606491820181525f928392909190612014908261150c565b519082895af190612023611bb2565b911591821561205d575b50506120395750505050565b604051636a93d39160e01b8152931660048401526024830152604482015260649150fd5b8091925051918215159283612077575b5050505f8061202d565b6120879350820181019101611bf1565b155f808061206d565b604051636a93d39160e01b81528589166004820152602481018790525f6044820152606490fd5b805180151592508690836120cf575b5050505f611fd6565b6120df9350820181019101611bf1565b155f85816120c6565b80518015925084908315612100575b5050505f611f87565b6121109350820181019101611bf1565b5f83816120f7565b60405163a9059cbb60e01b602082019081526001600160a01b03939093166024820152604480820194909452928352905f90819061215760648661150c565b84519082855af1612166611bb2565b901580156121c8575b61217857505050565b604051635b423d1960e11b81526001600160a01b03909216600483015260606024830152909182916121c4916121b2906064850190611639565b83810360031901604485015290611639565b0390fd5b50805180151590816121db575b5061216f565b6121ef915060209083010160208301611bf1565b155f6121d5565b6040516370a0823160e01b81523060048201526020816024817311cdb42b0eb46d95f990bedd4695a6e3fa0349785afa90811561050d575f91612237575090565b90506020813d60201161225e575b816122526020938361150c565b810103126100bd575190565b3d9150612245565b6040516370a0823160e01b81523060048201526020816024817382af49447d8a07e3bd95bd0d56f35241523fbab15afa90811561050d575f91612237575090565b6040516370a0823160e01b815230600482015260208160248173498bf2b1e120fed3ad3d42ea2165e9b73f99c1e55afa90811561050d575f91612237575090565b9190916122f481611ec0565b6122fc6122a7565b60405191630b68372160e31b8352600260048401525f602484015260448301526001606483015260209182816084815f7382670f35306253222f8a165869b28c64739ac62e5af190811561050d578391612460575b505061235f906117b56122a7565b9283156124345760405163a9059cbb60e01b8382019081526001600160a01b03929092166024820152604480820186905281529161239e60648461150c565b5f80845173498bf2b1e120fed3ad3d42ea2165e9b73f99c1e59482865af1906123c5611bb2565b9115908115612406575b506123d957505050565b6121c4906121b2604051948594635b423d1960e11b86526004860152606060248601526064850190611639565b825180151592508261241b575b50505f6123cf565b61242c925083018101908301611bf1565b155f80612413565b604051637af5fdf560e11b815273498bf2b1e120fed3ad3d42ea2165e9b73f99c1e56004820152602490fd5b813d8311612482575b612473818361150c565b810103126100bd57815f612351565b503d61246956fea2646970667358221220d4c12d6a2931a8bc7e07489c7836f0e0f12c5e6ff6da1d3189f3605dc90b427264736f6c63430008180033","linkReferences":{}},"methodIdentifiers":{"adminFeeBps()":"e6f0681c","adminFeeReceiver()":"54cc4a78","completeLiquidation((address,address,address,uint8,uint256,uint256,uint256))":"5b35804e","evc()":"0fb411e8","liquidate(address,uint8)":"366b7faa","liquidateBot(address,uint8,uint256,address)":"1d22ba09","marketInfo(uint8)":"d9197529","owner()":"8da5cb5b","setAdminFeeBps(uint256)":"0da26e8d","setAdminFeeReceiver(address)":"c5a066dd","transferOwner(address)":"4fb2e45d","updateMarket(uint8,address,address,address)":"01b0ba60"},"id":32}