{"abi":[{"type":"constructor","inputs":[{"name":"owner_","type":"address","internalType":"address"},{"name":"adminFeeReceiver_","type":"address","internalType":"address"},{"name":"evc_","type":"address","internalType":"address"},{"name":"adminFeeBps_","type":"uint256","internalType":"uint256"},{"name":"markets_","type":"tuple[6]","internalType":"struct EulerCollateralLiquidator.MarketConfig[6]","components":[{"name":"liabilityVault","type":"address","internalType":"address"},{"name":"collateralVault","type":"address","internalType":"address"},{"name":"loanToken","type":"address","internalType":"address"},{"name":"route","type":"uint8","internalType":"enum EulerCollateralLiquidator.CollateralRoute"}]}],"stateMutability":"nonpayable"},{"type":"function","name":"ACRV_WITHDRAW_SELECTOR","inputs":[],"outputs":[{"name":"","type":"bytes4","internalType":"bytes4"}],"stateMutability":"view"},{"type":"function","name":"adminFeeBps","inputs":[],"outputs":[{"name":"","type":"uint256","internalType":"uint256"}],"stateMutability":"view"},{"type":"function","name":"adminFeeReceiver","inputs":[],"outputs":[{"name":"","type":"address","internalType":"address"}],"stateMutability":"view"},{"type":"function","name":"completeLiquidation","inputs":[{"name":"params","type":"tuple","internalType":"struct EulerCollateralLiquidator.ActiveLiquidation","components":[{"name":"caller","type":"address","internalType":"address"},{"name":"callerFeeReceiver","type":"address","internalType":"address"},{"name":"borrower","type":"address","internalType":"address"},{"name":"marketNumber","type":"uint8","internalType":"uint8"},{"name":"repayAssets","type":"uint256","internalType":"uint256"},{"name":"collateralShares","type":"uint256","internalType":"uint256"},{"name":"routeCollateralBalanceBefore","type":"uint256","internalType":"uint256"}]}],"outputs":[],"stateMutability":"nonpayable"},{"type":"function","name":"evc","inputs":[],"outputs":[{"name":"","type":"address","internalType":"address"}],"stateMutability":"view"},{"type":"function","name":"liquidate","inputs":[{"name":"borrower","type":"address","internalType":"address"},{"name":"marketNumber","type":"uint8","internalType":"uint8"}],"outputs":[],"stateMutability":"nonpayable"},{"type":"function","name":"liquidateBot","inputs":[{"name":"borrower","type":"address","internalType":"address"},{"name":"marketNumber","type":"uint8","internalType":"uint8"},{"name":"deadline","type":"uint256","internalType":"uint256"},{"name":"callerFeeReceiver","type":"address","internalType":"address"}],"outputs":[],"stateMutability":"nonpayable"},{"type":"function","name":"marketInfo","inputs":[{"name":"marketNumber","type":"uint8","internalType":"uint8"}],"outputs":[{"name":"","type":"tuple","internalType":"struct EulerCollateralLiquidator.MarketConfig","components":[{"name":"liabilityVault","type":"address","internalType":"address"},{"name":"collateralVault","type":"address","internalType":"address"},{"name":"loanToken","type":"address","internalType":"address"},{"name":"route","type":"uint8","internalType":"enum EulerCollateralLiquidator.CollateralRoute"}]}],"stateMutability":"view"},{"type":"function","name":"owner","inputs":[],"outputs":[{"name":"","type":"address","internalType":"address"}],"stateMutability":"view"},{"type":"function","name":"setAdminFeeBps","inputs":[{"name":"newAdminFeeBps","type":"uint256","internalType":"uint256"}],"outputs":[],"stateMutability":"nonpayable"},{"type":"function","name":"setAdminFeeReceiver","inputs":[{"name":"newAdminFeeReceiver","type":"address","internalType":"address"}],"outputs":[],"stateMutability":"nonpayable"},{"type":"function","name":"transferOwner","inputs":[{"name":"newOwner","type":"address","internalType":"address"}],"outputs":[],"stateMutability":"nonpayable"},{"type":"function","name":"updateMarket","inputs":[{"name":"marketNumber","type":"uint8","internalType":"uint8"},{"name":"liabilityVault","type":"address","internalType":"address"},{"name":"collateralVault","type":"address","internalType":"address"},{"name":"loanToken","type":"address","internalType":"address"}],"outputs":[],"stateMutability":"nonpayable"},{"type":"event","name":"AdminFeeReceiverUpdated","inputs":[{"name":"oldReceiver","type":"address","indexed":true,"internalType":"address"},{"name":"newReceiver","type":"address","indexed":true,"internalType":"address"}],"anonymous":false},{"type":"event","name":"AdminFeeUpdated","inputs":[{"name":"oldFeeBps","type":"uint256","indexed":false,"internalType":"uint256"},{"name":"newFeeBps","type":"uint256","indexed":false,"internalType":"uint256"}],"anonymous":false},{"type":"event","name":"LiquidationExecuted","inputs":[{"name":"caller","type":"address","indexed":true,"internalType":"address"},{"name":"callerFeeReceiver","type":"address","indexed":true,"internalType":"address"},{"name":"borrower","type":"address","indexed":true,"internalType":"address"},{"name":"marketNumber","type":"uint8","indexed":false,"internalType":"uint8"},{"name":"repayAssets","type":"uint256","indexed":false,"internalType":"uint256"},{"name":"collateralShares","type":"uint256","indexed":false,"internalType":"uint256"},{"name":"profit","type":"uint256","indexed":false,"internalType":"uint256"},{"name":"adminFee","type":"uint256","indexed":false,"internalType":"uint256"},{"name":"callerFee","type":"uint256","indexed":false,"internalType":"uint256"}],"anonymous":false},{"type":"event","name":"OwnerTransferred","inputs":[{"name":"oldOwner","type":"address","indexed":true,"internalType":"address"},{"name":"newOwner","type":"address","indexed":true,"internalType":"address"}],"anonymous":false},{"type":"error","name":"ActiveLiquidationAlready","inputs":[]},{"type":"error","name":"ApproveFailed","inputs":[{"name":"token","type":"address","internalType":"address"},{"name":"spender","type":"address","internalType":"address"},{"name":"amount","type":"uint256","internalType":"uint256"}]},{"type":"error","name":"BadFee","inputs":[]},{"type":"error","name":"BadMarketNumber","inputs":[]},{"type":"error","name":"DebtNotRepaid","inputs":[]},{"type":"error","name":"Expired","inputs":[]},{"type":"error","name":"ExternalCallFailed","inputs":[{"name":"target","type":"address","internalType":"address"},{"name":"data","type":"bytes","internalType":"bytes"},{"name":"result","type":"bytes","internalType":"bytes"}]},{"type":"error","name":"InsufficientBalance","inputs":[{"name":"token","type":"address","internalType":"address"},{"name":"available","type":"uint256","internalType":"uint256"},{"name":"required","type":"uint256","internalType":"uint256"}]},{"type":"error","name":"NoActiveLiquidation","inputs":[]},{"type":"error","name":"NoLiquidationAvailable","inputs":[]},{"type":"error","name":"NoProfit","inputs":[]},{"type":"error","name":"NoRouteOutput","inputs":[{"name":"token","type":"address","internalType":"address"}]},{"type":"error","name":"NotEVC","inputs":[]},{"type":"error","name":"NotOwner","inputs":[]},{"type":"error","name":"ZeroAddress","inputs":[]},{"type":"error","name":"ZeroAmount","inputs":[]},{"type":"error","name":"ZeroReceiver","inputs":[]}],"bytecode":{"object":"0x60a060405234801562000010575f80fd5b50604051620042fd380380620042fd8339810160408190526200003391620002c3565b6001600160a01b03851615806200005157506001600160a01b038416155b806200006457506001600160a01b038316155b15620000835760405163d92e233d60e01b815260040160405180910390fd5b612710821115620000a75760405163917f1a5360e01b815260040160405180910390fd5b5f80546001600160a01b038088166001600160a01b031992831617835560018054888316931692909217909155841660805260028390555b60068160ff161015620001db5762000113828260ff1660068110620001085762000108620003cd565b6020020151620001e7565b818160ff16600681106200012b576200012b620003cd565b602002015160038260ff1660068110620001495762000149620003cd565b82516003919091029190910180546001600160a01b03199081166001600160a01b0393841617825560208401516001830180548316918516919091179055604084015160028301805492831691909416908117845560608501519293916001600160a81b03191617600160a01b836005811115620001cb57620001cb620003e1565b02179055505050600101620000df565b505050505050620003f5565b80516001600160a01b031615806200020a575060208101516001600160a01b0316155b8062000221575060408101516001600160a01b0316155b15620002405760405163d92e233d60e01b815260040160405180910390fd5b50565b80516001600160a01b03811681146200025a575f80fd5b919050565b634e487b7160e01b5f52604160045260245ffd5b60405160c081016001600160401b03811182821017156200029857620002986200025f565b60405290565b604051608081016001600160401b03811182821017156200029857620002986200025f565b5f805f805f610380808789031215620002da575f80fd5b620002e58762000243565b95506020620002f76020890162000243565b9550620003076040890162000243565b9450606080890151945060808a609f8b011262000322575f80fd5b6200032c62000273565b938a0193808c8611156200033e575f80fd5b60808c015b86811015620003b95783818f0312156200035b575f80fd5b620003656200029e565b620003708262000243565b81526200037f87830162000243565b87820152620003916040830162000243565b60408201528582015160068110620003a7575f80fd5b81870152835291850191830162000343565b508096505050505050509295509295909350565b634e487b7160e01b5f52603260045260245ffd5b634e487b7160e01b5f52602160045260245ffd5b608051613ecc620004315f395f818161016801528181610721015281816113e0015281816114cd015281816119cd0152611b620152613ecc5ff3fe608060405234801561000f575f80fd5b50600436106100da575f3560e01c80634fb2e45d116100885780638da5cb5b116100635780638da5cb5b1461021b578063c5a066dd1461023a578063d91975291461024d578063e6f0681c1461026d575f80fd5b80634fb2e45d146101d557806354cc4a78146101e85780635b35804e14610208575f80fd5b80630fb411e8116100b85780630fb411e8146101635780631d22ba09146101af578063366b7faa146101c2575f80fd5b806301b0ba60146100de57806304f3e4ce146100f35780630da26e8d14610150575b5f80fd5b6100f16100ec3660046139fe565b610284565b005b61011a7fad2ea2e70000000000000000000000000000000000000000000000000000000081565b6040517fffffffff0000000000000000000000000000000000000000000000000000000090911681526020015b60405180910390f35b6100f161015e366004613a55565b610496565b61018a7f000000000000000000000000000000000000000000000000000000000000000081565b60405173ffffffffffffffffffffffffffffffffffffffff9091168152602001610147565b6100f16101bd366004613a6c565b610563565b6100f16101d0366004613aaf565b610575565b6100f16101e3366004613ae2565b6105a5565b60015461018a9073ffffffffffffffffffffffffffffffffffffffff1681565b6100f1610216366004613afd565b6106cd565b5f5461018a9073ffffffffffffffffffffffffffffffffffffffff1681565b6100f1610248366004613ae2565b610cb3565b61026061025b366004613b0d565b610ddd565b6040516101479190613b53565b61027660025481565b604051908152602001610147565b5f5473ffffffffffffffffffffffffffffffffffffffff1633146102d4576040517f30cd747100000000000000000000000000000000000000000000000000000000815260040160405180910390fd5b60068460ff1610610311576040517fecee30ca00000000000000000000000000000000000000000000000000000000815260040160405180910390fd5b5f60405180608001604052808573ffffffffffffffffffffffffffffffffffffffff1681526020018473ffffffffffffffffffffffffffffffffffffffff1681526020018373ffffffffffffffffffffffffffffffffffffffff1681526020018660ff16600581111561038657610386613b26565b600581111561039757610397613b26565b905290506103a481610eef565b8060038660ff16600681106103bb576103bb613bd5565b82516003919091029190910180547fffffffffffffffffffffffff000000000000000000000000000000000000000090811673ffffffffffffffffffffffffffffffffffffffff93841617825560208401516001830180548316918516919091179055604084015160028301805492831691909416908117845560608501519293917fffffffffffffffffffffff00000000000000000000000000000000000000000016177401000000000000000000000000000000000000000083600581111561048857610488613b26565b021790555050505050505050565b5f5473ffffffffffffffffffffffffffffffffffffffff1633146104e6576040517f30cd747100000000000000000000000000000000000000000000000000000000815260040160405180910390fd5b612710811115610522576040517f917f1a5300000000000000000000000000000000000000000000000000000000815260040160405180910390fd5b60025460408051918252602082018390527f3a2f07ad45d15f93e217635fa46ff59c188369d5c73302d63302909df63b81ef910160405180910390a1600255565b61056f84848385610f88565b50505050565b6105a18282337fffffffffffffffffffffffffffffffffffffffffffffffffffffffffffffffff610f88565b5050565b5f5473ffffffffffffffffffffffffffffffffffffffff1633146105f5576040517f30cd747100000000000000000000000000000000000000000000000000000000815260040160405180910390fd5b73ffffffffffffffffffffffffffffffffffffffff8116610642576040517fd92e233d00000000000000000000000000000000000000000000000000000000815260040160405180910390fd5b5f805460405173ffffffffffffffffffffffffffffffffffffffff808516939216917f8934ce4adea8d9ce0d714d2c22b86790e41b7731c84b926fbbdc1d40ff6533c991a35f80547fffffffffffffffffffffffff00000000000000000000000000000000000000001673ffffffffffffffffffffffffffffffffffffffff92909216919091179055565b60155460ff16610709576040517f6fadd5fc00000000000000000000000000000000000000000000000000000000815260040160405180910390fd5b3373ffffffffffffffffffffffffffffffffffffffff7f00000000000000000000000000000000000000000000000000000000000000001614610778576040517fd547362e00000000000000000000000000000000000000000000000000000000815260040160405180910390fd5b5f600361078b6080840160608501613b0d565b60ff166006811061079e5761079e613bd5565b6040805160808101825260039290920292909201805473ffffffffffffffffffffffffffffffffffffffff90811683526001820154811660208401526002820154908116938301939093529091606083019074010000000000000000000000000000000000000000900460ff16600581111561081c5761081c613b26565b600581111561082d5761082d613b26565b90525090505f61083c82611bf7565b6040517f70a082310000000000000000000000000000000000000000000000000000000081523060048201529091505f9060c08501359073ffffffffffffffffffffffffffffffffffffffff8416906370a0823190602401602060405180830381865afa1580156108af573d5f803e3d5ffd5b505050506040513d601f19601f820116820180604052508101906108d39190613c02565b6108dd9190613c46565b90506108ed836060015182611d75565b506109048360400151845f01518660800135611e3c565b82516040517facb708150000000000000000000000000000000000000000000000000000000081527fffffffffffffffffffffffffffffffffffffffffffffffffffffffffffffffff600482015230602482015273ffffffffffffffffffffffffffffffffffffffff9091169063acb70815906044016020604051808303815f875af1158015610996573d5f803e3d5ffd5b505050506040513d601f19601f820116820180604052508101906109ba9190613c02565b5082516040517fd283e75f00000000000000000000000000000000000000000000000000000000815230600482015273ffffffffffffffffffffffffffffffffffffffff9091169063d283e75f90602401602060405180830381865afa158015610a26573d5f803e3d5ffd5b505050506040513d601f19601f82011682018060405250810190610a4a9190613c02565b15610a81576040517f8b46109600000000000000000000000000000000000000000000000000000000815260040160405180910390fd5b60408084015190517f70a082310000000000000000000000000000000000000000000000000000000081523060048201525f9173ffffffffffffffffffffffffffffffffffffffff16906370a0823190602401602060405180830381865afa158015610aef573d5f803e3d5ffd5b505050506040513d601f19601f82011682018060405250810190610b139190613c02565b9050805f03610b4e576040517fe39aafee00000000000000000000000000000000000000000000000000000000815260040160405180910390fd5b5f61271060025483610b609190613c59565b610b6a9190613c70565b90505f610b778284613c46565b90508115610ba8576040860151600154610ba8919073ffffffffffffffffffffffffffffffffffffffff168461225e565b8015610bcd57604080870151610bcd91610bc7908a0160208b01613ae2565b8361225e565b610bdd6060880160408901613ae2565b73ffffffffffffffffffffffffffffffffffffffff16610c036040890160208a01613ae2565b73ffffffffffffffffffffffffffffffffffffffff16610c2660208a018a613ae2565b73ffffffffffffffffffffffffffffffffffffffff167f557371175987d2b90abf3aed1d7ec83d5a100caf34d0bc9e7cbd9f473ce4ab32610c6d60808c0160608d01613b0d565b6040805160ff92909216825260808d810135602084015260a0808f013584840152606084018b90529083018990528201879052519081900360c00190a450505050505050565b5f5473ffffffffffffffffffffffffffffffffffffffff163314610d03576040517f30cd747100000000000000000000000000000000000000000000000000000000815260040160405180910390fd5b73ffffffffffffffffffffffffffffffffffffffff8116610d50576040517fd92e233d00000000000000000000000000000000000000000000000000000000815260040160405180910390fd5b60015460405173ffffffffffffffffffffffffffffffffffffffff8084169216907f86f1ea447c0ade1c00e3fcd68dc32fee6b729e2918af992b853c6f0d0e245676905f90a3600180547fffffffffffffffffffffffff00000000000000000000000000000000000000001673ffffffffffffffffffffffffffffffffffffffff92909216919091179055565b610e04604080516080810182525f8082526020820181905291810182905290606082015290565b60068260ff1610610e41576040517fecee30ca00000000000000000000000000000000000000000000000000000000815260040160405180910390fd5b60038260ff1660068110610e5757610e57613bd5565b6040805160808101825260039290920292909201805473ffffffffffffffffffffffffffffffffffffffff90811683526001820154811660208401526002820154908116938301939093529091606083019074010000000000000000000000000000000000000000900460ff166005811115610ed557610ed5613b26565b6005811115610ee657610ee6613b26565b90525092915050565b805173ffffffffffffffffffffffffffffffffffffffff161580610f2b5750602081015173ffffffffffffffffffffffffffffffffffffffff16155b80610f4e5750604081015173ffffffffffffffffffffffffffffffffffffffff16155b15610f85576040517fd92e233d00000000000000000000000000000000000000000000000000000000815260040160405180910390fd5b50565b80421115610fc2576040517f203d82d800000000000000000000000000000000000000000000000000000000815260040160405180910390fd5b73ffffffffffffffffffffffffffffffffffffffff84161580610ff9575073ffffffffffffffffffffffffffffffffffffffff8216155b15611030576040517fd92e233d00000000000000000000000000000000000000000000000000000000815260040160405180910390fd5b60068360ff161061106d576040517fecee30ca00000000000000000000000000000000000000000000000000000000815260040160405180910390fd5b60155460ff16156110aa576040517fc9bc628100000000000000000000000000000000000000000000000000000000815260040160405180910390fd5b5f60038460ff16600681106110c1576110c1613bd5565b6040805160808101825260039290920292909201805473ffffffffffffffffffffffffffffffffffffffff90811683526001820154811660208401526002820154908116938301939093529091606083019074010000000000000000000000000000000000000000900460ff16600581111561113f5761113f613b26565b600581111561115057611150613b26565b905250805160208201516040517f88aa6f1200000000000000000000000000000000000000000000000000000000815230600482015273ffffffffffffffffffffffffffffffffffffffff898116602483015291821660448201529293505f92839291909116906388aa6f12906064016040805180830381865afa1580156111da573d5f803e3d5ffd5b505050506040513d601f19601f820116820180604052508101906111fe9190613ca8565b91509150815f148061120e575080155b15611245576040517fa4754dad00000000000000000000000000000000000000000000000000000000815260040160405180910390fd5b5f6040518060e001604052803373ffffffffffffffffffffffffffffffffffffffff1681526020018773ffffffffffffffffffffffffffffffffffffffff1681526020018973ffffffffffffffffffffffffffffffffffffffff1681526020018860ff1681526020018481526020018381526020016112c386611bf7565b6040517f70a0823100000000000000000000000000000000000000000000000000000000815230600482015273ffffffffffffffffffffffffffffffffffffffff91909116906370a0823190602401602060405180830381865afa15801561132d573d5f803e3d5ffd5b505050506040513d601f19601f820116820180604052508101906113519190613c02565b905260408051600780825261010082019092529192505f9190816020015b604080516080810182525f80825260208083018290529282015260608082015282527fffffffffffffffffffffffffffffffffffffffffffffffffffffffffffffffff90920191018161136f579050506040805160808101825273ffffffffffffffffffffffffffffffffffffffff7f0000000000000000000000000000000000000000000000000000000000000000811682525f602083018190528284015288519251306024820152921660448301529192506060820190606401604080517fffffffffffffffffffffffffffffffffffffffffffffffffffffffffffffffe08184030181529190526020810180517bffffffffffffffffffffffffffffffffffffffffffffffffffffffff167fc368516c000000000000000000000000000000000000000000000000000000001790529052815182905f906114b5576114b5613bd5565b602002602001018190525060405180608001604052807f000000000000000000000000000000000000000000000000000000000000000073ffffffffffffffffffffffffffffffffffffffff1681526020015f73ffffffffffffffffffffffffffffffffffffffff1681526020015f815260200130876020015160405160240161156292919073ffffffffffffffffffffffffffffffffffffffff92831681529116602082015260400190565b604080517fffffffffffffffffffffffffffffffffffffffffffffffffffffffffffffffe08184030181529190526020810180517bffffffffffffffffffffffffffffffffffffffffffffffffffffffff167fd44fee5a0000000000000000000000000000000000000000000000000000000017905290528151829060019081106115ef576115ef613bd5565b60209081029190910181019190915260408051608081018252875173ffffffffffffffffffffffffffffffffffffffff908116825230828501525f8284018190529389015192518d8216602482015292166044830152606482018790526084820192909252606082019060a401604080517fffffffffffffffffffffffffffffffffffffffffffffffffffffffffffffffe08184030181529190526020810180517bffffffffffffffffffffffffffffffffffffffffffffffffffffffff167fc13425740000000000000000000000000000000000000000000000000000000017905290528151829060029081106116e9576116e9613bd5565b60200260200101819052506040518060800160405280866020015173ffffffffffffffffffffffffffffffffffffffff1681526020013073ffffffffffffffffffffffffffffffffffffffff1681526020015f815260200184303060405160240161177d9392919092835273ffffffffffffffffffffffffffffffffffffffff918216602084015216604082015260600190565b604080517fffffffffffffffffffffffffffffffffffffffffffffffffffffffffffffffe08184030181529190526020810180517bffffffffffffffffffffffffffffffffffffffffffffffffffffffff167fba08765200000000000000000000000000000000000000000000000000000000179052905281518290600390811061180a5761180a613bd5565b60209081029190910181019190915260408051608080820183523082525f828501819052828401528251865173ffffffffffffffffffffffffffffffffffffffff908116602483015287860151811660448301528785015116606482015260608088015160ff1660848301529187015160a482015260a087015160c482015260c087015160e4808301919091528451808303909101815261010490910190935292820180517bffffffffffffffffffffffffffffffffffffffffffffffffffffffff167f5b35804e000000000000000000000000000000000000000000000000000000001790529182015281518290600490811061190a5761190a613bd5565b60209081029190910181019190915260408051608081018252875173ffffffffffffffffffffffffffffffffffffffff16815230818401525f818301528151600481526024810190925291810180517bffffffffffffffffffffffffffffffffffffffffffffffffffffffff167f869e50c70000000000000000000000000000000000000000000000000000000017905260608201528151829060059081106119b5576119b5613bd5565b602002602001018190525060405180608001604052807f000000000000000000000000000000000000000000000000000000000000000073ffffffffffffffffffffffffffffffffffffffff1681526020015f73ffffffffffffffffffffffffffffffffffffffff1681526020015f8152602001308760200151604051602401611a6292919073ffffffffffffffffffffffffffffffffffffffff92831681529116602082015260400190565b604080517fffffffffffffffffffffffffffffffffffffffffffffffffffffffffffffffe08184030181529190526020810180517bffffffffffffffffffffffffffffffffffffffffffffffffffffffff167fe920e8e0000000000000000000000000000000000000000000000000000000001790529052815182906006908110611aef57611aef613bd5565b6020908102919091010152601580547fffffffffffffffffffffffffffffffffffffffffffffffffffffffffffffff001660011790556040517fc16ae7a400000000000000000000000000000000000000000000000000000000815273ffffffffffffffffffffffffffffffffffffffff7f0000000000000000000000000000000000000000000000000000000000000000169063c16ae7a490611b97908490600401613d35565b5f604051808303815f87803b158015611bae575f80fd5b505af1158015611bc0573d5f803e3d5ffd5b5050601580547fffffffffffffffffffffffffffffffffffffffffffffffffffffffffffffff001690555050505050505050505050565b5f600282606001516005811115611c1057611c10613b26565b03611c3157732b95a1dcc3d405535f9ed33c219ab38e8d7e08845b92915050565b5f82606001516005811115611c4857611c48613b26565b03611c67577343e54c2e7b3e294de3a155785f52ab49d87b9922611c2b565b600182606001516005811115611c7f57611c7f613b26565b03611c9e577327b5739e22ad9033bcbf192059122d163b60349d611c2b565b600382606001516005811115611cb657611cb6613b26565b03611cd557730844c227b892be5d7c837000c096f64bfc316c2d611c2b565b600482606001516005811115611ced57611ced613b26565b03611d0c57733b09a704669a5d8463fbff06730895aeee7a9671611c2b565b600582606001516005811115611d2457611d24613b26565b03611d4357730b1b34677b80f499d2f03bf335ed6a2db9f2a376611c2b565b6040517fecee30ca00000000000000000000000000000000000000000000000000000000815260040160405180910390fd5b5f6002836005811115611d8a57611d8a613b26565b03611da057611d9982306123db565b9050611c2b565b5f836005811115611db357611db3613b26565b03611dc257611d99823061264e565b6001836005811115611dd657611dd6613b26565b03611de557611d9982306128b9565b6003836005811115611df957611df9613b26565b03611e0857611d998230612a62565b6004836005811115611e1c57611e1c613b26565b03611e2b57611d998230612e34565b611e35823061315d565b9392505050565b60405173ffffffffffffffffffffffffffffffffffffffff8381166024830152604482018390525f918291861690606401604080517fffffffffffffffffffffffffffffffffffffffffffffffffffffffffffffffe08184030181529181526020820180517bffffffffffffffffffffffffffffffffffffffffffffffffffffffff167f095ea7b30000000000000000000000000000000000000000000000000000000017905251611eee9190613df7565b5f604051808303815f865af19150503d805f8114611f27576040519150601f19603f3d011682016040523d82523d5f602084013e611f2c565b606091505b5091509150818015611f56575080511580611f56575080806020019051810190611f569190613e12565b15611f62575050505050565b60405173ffffffffffffffffffffffffffffffffffffffff85811660248301525f6044830152861690606401604080517fffffffffffffffffffffffffffffffffffffffffffffffffffffffffffffffe08184030181529181526020820180517bffffffffffffffffffffffffffffffffffffffffffffffffffffffff167f095ea7b3000000000000000000000000000000000000000000000000000000001790525161200f9190613df7565b5f604051808303815f865af19150503d805f8114612048576040519150601f19603f3d011682016040523d82523d5f602084013e61204d565b606091505b50909250905081158061207c575080511580159061207c57508080602001905181019061207a9190613e12565b155b156120de576040517f6a93d39100000000000000000000000000000000000000000000000000000000815273ffffffffffffffffffffffffffffffffffffffff8087166004830152851660248201525f60448201526064015b60405180910390fd5b60405173ffffffffffffffffffffffffffffffffffffffff858116602483015260448201859052861690606401604080517fffffffffffffffffffffffffffffffffffffffffffffffffffffffffffffffe08184030181529181526020820180517bffffffffffffffffffffffffffffffffffffffffffffffffffffffff167f095ea7b3000000000000000000000000000000000000000000000000000000001790525161218c9190613df7565b5f604051808303815f865af19150503d805f81146121c5576040519150601f19603f3d011682016040523d82523d5f602084013e6121ca565b606091505b5090925090508115806121f957508051158015906121f95750808060200190518101906121f79190613e12565b155b15612257576040517f6a93d39100000000000000000000000000000000000000000000000000000000815273ffffffffffffffffffffffffffffffffffffffff808716600483015285166024820152604481018490526064016120d5565b5050505050565b60405173ffffffffffffffffffffffffffffffffffffffff83166024820152604481018290525f90606401604080517fffffffffffffffffffffffffffffffffffffffffffffffffffffffffffffffe08184030181529181526020820180517bffffffffffffffffffffffffffffffffffffffffffffffffffffffff167fa9059cbb00000000000000000000000000000000000000000000000000000000179052519091505f90819073ffffffffffffffffffffffffffffffffffffffff87169061232a908590613df7565b5f604051808303815f865af19150503d805f8114612363576040519150601f19603f3d011682016040523d82523d5f602084013e612368565b606091505b509150915081158061239657508051158015906123965750808060200190518101906123949190613e12565b155b156123d3578583826040517fb6847a320000000000000000000000000000000000000000000000000000000081526004016120d593929190613e31565b505050505050565b5f6123fc732b95a1dcc3d405535f9ed33c219ab38e8d7e08845b8484613485565b5f61241a73d533a949740bb3306d119cc777fa900ba034cd52613577565b6040805130602482015260016044820152600260648083019190915282518083039091018152608490910182526020810180517bffffffffffffffffffffffffffffffffffffffffffffffffffffffff167fad2ea2e70000000000000000000000000000000000000000000000000000000017905290519192505f918291732b95a1dcc3d405535f9ed33c219ab38e8d7e0884916124b89190613df7565b5f604051808303815f865af19150503d805f81146124f1576040519150601f19603f3d011682016040523d82523d5f602084013e6124f6565b606091505b50915091508161259e57732b95a1dcc3d405535f9ed33c219ab38e8d7e08846040805160048082526024820183526020820180517bffffffffffffffffffffffffffffffffffffffffffffffffffffffff167fad2ea2e70000000000000000000000000000000000000000000000000000000017905291517fb6847a320000000000000000000000000000000000000000000000000000000081526120d59392859101613e31565b5f836125bd73d533a949740bb3306d119cc777fa900ba034cd52613577565b6125c79190613c46565b9050805f036126315773d533a949740bb3306d119cc777fa900ba034cd525b6040517ff5ebfbea00000000000000000000000000000000000000000000000000000000815273ffffffffffffffffffffffffffffffffffffffff90911660048201526024016120d5565b61264361263d82613605565b87613764565b979650505050505050565b5f61266c7343e54c2e7b3e294de3a155785f52ab49d87b99226123f5565b5f61268a73d1b5651e55d4ceed36251c61c50c889b36f6abb5613577565b90507343e54c2e7b3e294de3a155785f52ab49d87b99226040517fba087652000000000000000000000000000000000000000000000000000000008152600481018690523060248201819052604482015273ffffffffffffffffffffffffffffffffffffffff919091169063ba087652906064016020604051808303815f875af115801561271a573d5f803e3d5ffd5b505050506040513d601f19601f8201168201806040525081019061273e9190613c02565b505f8161275e73d1b5651e55d4ceed36251c61c50c889b36f6abb5613577565b6127689190613c46565b9050805f0361278b5773d1b5651e55d4ceed36251c61c50c889b36f6abb56125e6565b6127bf73d1b5651e55d4ceed36251c61c50c889b36f6abb573ca0253a98d16e9c1e3614cafda19318ee69772d05b83611e3c565b5f6127dd73d533a949740bb3306d119cc777fa900ba034cd52613577565b905073ca0253a98d16e9c1e3614cafda19318ee69772d05b6040517f3df021240000000000000000000000000000000000000000000000000000000081526001600482018190525f602483015260448201859052606482015273ffffffffffffffffffffffffffffffffffffffff9190911690633df02124906084016020604051808303815f875af1158015612875573d5f803e3d5ffd5b505050506040513d601f19601f820116820180604052508101906128999190613c02565b505f816125bd73d533a949740bb3306d119cc777fa900ba034cd52613577565b5f6128d77327b5739e22ad9033bcbf192059122d163b60349d6123f5565b5f6128f573fcc5c47be19d06bf83eb04298b026f81069ff65b613577565b90507327b5739e22ad9033bcbf192059122d163b60349d6040517fe63697c8000000000000000000000000000000000000000000000000000000008152600481018690523060248201526001604482015273ffffffffffffffffffffffffffffffffffffffff919091169063e63697c8906064016020604051808303815f875af1158015612985573d5f803e3d5ffd5b505050506040513d601f19601f820116820180604052508101906129a99190613c02565b505f816129c973fcc5c47be19d06bf83eb04298b026f81069ff65b613577565b6129d39190613c46565b9050805f036129f65773fcc5c47be19d06bf83eb04298b026f81069ff65b6125e6565b612a2873fcc5c47be19d06bf83eb04298b026f81069ff65b73453d92c7d4263201c69aacfaf589ed14202d83a46127b9565b5f612a4673d533a949740bb3306d119cc777fa900ba034cd52613577565b905073453d92c7d4263201c69aacfaf589ed14202d83a46127f5565b5f612a80730844c227b892be5d7c837000c096f64bfc316c2d6123f5565b5f612a9e735ee9606e5611fd6ce14bd2bc12db70bd53dc9daa613577565b9050730844c227b892be5d7c837000c096f64bfc316c2d6040517fe63697c8000000000000000000000000000000000000000000000000000000008152600481018690523060248201526001604482015273ffffffffffffffffffffffffffffffffffffffff919091169063e63697c8906064016020604051808303815f875af1158015612b2e573d5f803e3d5ffd5b505050506040513d601f19601f82011682018060405250810190612b529190613c02565b505f81612b72735ee9606e5611fd6ce14bd2bc12db70bd53dc9daa613577565b612b7c9190613c46565b9050805f03612b9f57735ee9606e5611fd6ce14bd2bc12db70bd53dc9daa6125e6565b612bbd735ee9606e5611fd6ce14bd2bc12db70bd53dc9daa806127b9565b5f612bdb7301791f726b4103694969820be083196cc7c045ff613577565b9050735ee9606e5611fd6ce14bd2bc12db70bd53dc9daa6040517f1a4d01d2000000000000000000000000000000000000000000000000000000008152600481018490525f60248201526001604482015273ffffffffffffffffffffffffffffffffffffffff9190911690631a4d01d2906064016020604051808303815f875af1158015612c6b573d5f803e3d5ffd5b505050506040513d601f19601f82011682018060405250810190612c8f9190613c02565b505f81612caf7301791f726b4103694969820be083196cc7c045ff613577565b612cb99190613c46565b9050805f03612cdc577301791f726b4103694969820be083196cc7c045ff6125e6565b612d0e7301791f726b4103694969820be083196cc7c045ff73ec977f46467a3021785cff88894886e617abd65b6127b9565b5f612d2c73f939e0a03fb07f59a73314e73794be0e57ac1b4e613577565b6040517f5b41b9080000000000000000000000000000000000000000000000000000000081526001600482018190525f602483015260448201859052606482015290915073ec977f46467a3021785cff88894886e617abd65b90635b41b908906084015b6020604051808303815f875af1158015612dac573d5f803e3d5ffd5b505050506040513d601f19601f82011682018060405250810190612dd09190613c02565b505f81612df073f939e0a03fb07f59a73314e73794be0e57ac1b4e613577565b612dfa9190613c46565b9050805f03612e1d5773f939e0a03fb07f59a73314e73794be0e57ac1b4e6125e6565b612e278189613764565b9998505050505050505050565b5f733b09a704669a5d8463fbff06730895aeee7a9671612e55818585613485565b5f8173ffffffffffffffffffffffffffffffffffffffff16631f1fcd516040518163ffffffff1660e01b8152600401602060405180830381865afa158015612e9f573d5f803e3d5ffd5b505050506040513d601f19601f82011682018060405250810190612ec39190613e7b565b6040517f70a082310000000000000000000000000000000000000000000000000000000081523060048201529091505f9073ffffffffffffffffffffffffffffffffffffffff8316906370a0823190602401602060405180830381865afa158015612f30573d5f803e3d5ffd5b505050506040513d601f19601f82011682018060405250810190612f549190613c02565b6040517f2e1a7d4d0000000000000000000000000000000000000000000000000000000081526004810188905290915073ffffffffffffffffffffffffffffffffffffffff841690632e1a7d4d906024015f604051808303815f87803b158015612fbc575f80fd5b505af1158015612fce573d5f803e3d5ffd5b50506040517f70a082310000000000000000000000000000000000000000000000000000000081523060048201525f925083915073ffffffffffffffffffffffffffffffffffffffff8516906370a0823190602401602060405180830381865afa15801561303e573d5f803e3d5ffd5b505050506040513d601f19601f820116820180604052508101906130629190613c02565b61306c9190613c46565b9050805f036130bf576040517ff5ebfbea00000000000000000000000000000000000000000000000000000000815273ffffffffffffffffffffffffffffffffffffffff841660048201526024016120d5565b6130dd8373ecb0f0d68c19bdaadaebe24f6752a4db34e2c2cb6127b9565b5f6130fb73f939e0a03fb07f59a73314e73794be0e57ac1b4e613577565b6040517f1a4d01d200000000000000000000000000000000000000000000000000000000815260048101849052600160248201819052604482015290915073ecb0f0d68c19bdaadaebe24f6752a4db34e2c2cb90631a4d01d290606401612d90565b5f730b1b34677b80f499d2f03bf335ed6a2db9f2a37661317e818585613485565b5f8173ffffffffffffffffffffffffffffffffffffffff16631f1fcd516040518163ffffffff1660e01b8152600401602060405180830381865afa1580156131c8573d5f803e3d5ffd5b505050506040513d601f19601f820116820180604052508101906131ec9190613e7b565b6040517f70a082310000000000000000000000000000000000000000000000000000000081523060048201529091505f9073ffffffffffffffffffffffffffffffffffffffff8316906370a0823190602401602060405180830381865afa158015613259573d5f803e3d5ffd5b505050506040513d601f19601f8201168201806040525081019061327d9190613c02565b6040517f2e1a7d4d0000000000000000000000000000000000000000000000000000000081526004810188905290915073ffffffffffffffffffffffffffffffffffffffff841690632e1a7d4d906024015f604051808303815f87803b1580156132e5575f80fd5b505af11580156132f7573d5f803e3d5ffd5b50506040517f70a082310000000000000000000000000000000000000000000000000000000081523060048201525f925083915073ffffffffffffffffffffffffffffffffffffffff8516906370a0823190602401602060405180830381865afa158015613367573d5f803e3d5ffd5b505050506040513d601f19601f8201168201806040525081019061338b9190613c02565b6133959190613c46565b9050805f036133e8576040517ff5ebfbea00000000000000000000000000000000000000000000000000000000815273ffffffffffffffffffffffffffffffffffffffff841660048201526024016120d5565b6134068373ec977f46467a3021785cff88894886e617abd65b6127b9565b5f61342473f939e0a03fb07f59a73314e73794be0e57ac1b4e613577565b6040517ff1dc3cc9000000000000000000000000000000000000000000000000000000008152600481018490525f60248201526001604482015290915073ec977f46467a3021785cff88894886e617abd65b9063f1dc3cc990606401612d90565b815f036134be576040517f1f2a200500000000000000000000000000000000000000000000000000000000815260040160405180910390fd5b73ffffffffffffffffffffffffffffffffffffffff811661350b576040517f6ba9ecd800000000000000000000000000000000000000000000000000000000815260040160405180910390fd5b5f61351584613577565b90508281101561056f576040517fdb42144d00000000000000000000000000000000000000000000000000000000815273ffffffffffffffffffffffffffffffffffffffff8516600482015260248101829052604481018490526064016120d5565b6040517f70a082310000000000000000000000000000000000000000000000000000000081523060048201525f9073ffffffffffffffffffffffffffffffffffffffff8316906370a0823190602401602060405180830381865afa1580156135e1573d5f803e3d5ffd5b505050506040513d601f19601f82011682018060405250810190611c2b9190613c02565b5f61363973d533a949740bb3306d119cc777fa900ba034cd52734ebdf703948ddcea3b11f675b4d1fba9d2414a1484611e3c565b5f61365773f939e0a03fb07f59a73314e73794be0e57ac1b4e613577565b9050734ebdf703948ddcea3b11f675b4d1fba9d2414a146040517f5b41b908000000000000000000000000000000000000000000000000000000008152600260048201525f6024820152604481018590526001606482015273ffffffffffffffffffffffffffffffffffffffff9190911690635b41b908906084016020604051808303815f875af11580156136ee573d5f803e3d5ffd5b505050506040513d601f19601f820116820180604052508101906137129190613c02565b508061373173f939e0a03fb07f59a73314e73794be0e57ac1b4e613577565b61373b9190613c46565b9150815f0361375e5773f939e0a03fb07f59a73314e73794be0e57ac1b4e6125e6565b50919050565b5f61379873f939e0a03fb07f59a73314e73794be0e57ac1b4e730655977feb2f289a4ab78af67bab0d17aab8436785611e3c565b5f730655977feb2f289a4ab78af67bab0d17aab843676040517f70a0823100000000000000000000000000000000000000000000000000000000815273ffffffffffffffffffffffffffffffffffffffff858116600483015291909116906370a0823190602401602060405180830381865afa15801561381a573d5f803e3d5ffd5b505050506040513d601f19601f8201168201806040525081019061383e9190613c02565b9050730655977feb2f289a4ab78af67bab0d17aab843676040517f6e553f650000000000000000000000000000000000000000000000000000000081526004810186905273ffffffffffffffffffffffffffffffffffffffff85811660248301529190911690636e553f65906044016020604051808303815f875af11580156138c9573d5f803e3d5ffd5b505050506040513d601f19601f820116820180604052508101906138ed9190613c02565b5080730655977feb2f289a4ab78af67bab0d17aab843676040517f70a0823100000000000000000000000000000000000000000000000000000000815273ffffffffffffffffffffffffffffffffffffffff868116600483015291909116906370a0823190602401602060405180830381865afa158015613970573d5f803e3d5ffd5b505050506040513d601f19601f820116820180604052508101906139949190613c02565b61399e9190613c46565b9150815f036139c157730655977feb2f289a4ab78af67bab0d17aab843676125e6565b5092915050565b803560ff811681146139d8575f80fd5b919050565b73ffffffffffffffffffffffffffffffffffffffff81168114610f85575f80fd5b5f805f8060808587031215613a11575f80fd5b613a1a856139c8565b93506020850135613a2a816139dd565b92506040850135613a3a816139dd565b91506060850135613a4a816139dd565b939692955090935050565b5f60208284031215613a65575f80fd5b5035919050565b5f805f8060808587031215613a7f575f80fd5b8435613a8a816139dd565b9350613a98602086016139c8565b9250604085013591506060850135613a4a816139dd565b5f8060408385031215613ac0575f80fd5b8235613acb816139dd565b9150613ad9602084016139c8565b90509250929050565b5f60208284031215613af2575f80fd5b8135611e35816139dd565b5f60e0828403121561375e575f80fd5b5f60208284031215613b1d575f80fd5b611e35826139c8565b7f4e487b71000000000000000000000000000000000000000000000000000000005f52602160045260245ffd5b5f60808201905073ffffffffffffffffffffffffffffffffffffffff80845116835280602085015116602084015280604085015116604084015250606083015160068110613bc8577f4e487b71000000000000000000000000000000000000000000000000000000005f52602160045260245ffd5b8060608401525092915050565b7f4e487b71000000000000000000000000000000000000000000000000000000005f52603260045260245ffd5b5f60208284031215613c12575f80fd5b5051919050565b7f4e487b71000000000000000000000000000000000000000000000000000000005f52601160045260245ffd5b81810381811115611c2b57611c2b613c19565b8082028115828204841417611c2b57611c2b613c19565b5f82613ca3577f4e487b71000000000000000000000000000000000000000000000000000000005f52601260045260245ffd5b500490565b5f8060408385031215613cb9575f80fd5b505080516020909101519092909150565b5f5b83811015613ce4578181015183820152602001613ccc565b50505f910152565b5f8151808452613d03816020860160208601613cca565b601f017fffffffffffffffffffffffffffffffffffffffffffffffffffffffffffffffe0169290920160200192915050565b5f60208083018184528085518083526040925060408601915060408160051b8701018488015f5b83811015613de9578883037fffffffffffffffffffffffffffffffffffffffffffffffffffffffffffffffc00185528151805173ffffffffffffffffffffffffffffffffffffffff90811685528882015116888501528681015187850152606090810151608091850182905290613dd581860183613cec565b968901969450505090860190600101613d5c565b509098975050505050505050565b5f8251613e08818460208701613cca565b9190910192915050565b5f60208284031215613e22575f80fd5b81518015158114611e35575f80fd5b73ffffffffffffffffffffffffffffffffffffffff84168152606060208201525f613e5f6060830185613cec565b8281036040840152613e718185613cec565b9695505050505050565b5f60208284031215613e8b575f80fd5b8151611e35816139dd56fea264697066735822122029a96f08e49bf602049202e267c629d2c54f9ea0a278e30db72abbfbfffbe7d164736f6c63430008180033","linkReferences":{}},"methodIdentifiers":{"ACRV_WITHDRAW_SELECTOR()":"04f3e4ce","adminFeeBps()":"e6f0681c","adminFeeReceiver()":"54cc4a78","completeLiquidation((address,address,address,uint8,uint256,uint256,uint256))":"5b35804e","evc()":"0fb411e8","liquidate(address,uint8)":"366b7faa","liquidateBot(address,uint8,uint256,address)":"1d22ba09","marketInfo(uint8)":"d9197529","owner()":"8da5cb5b","setAdminFeeBps(uint256)":"0da26e8d","setAdminFeeReceiver(address)":"c5a066dd","transferOwner(address)":"4fb2e45d","updateMarket(uint8,address,address,address)":"01b0ba60"},"id":1}